{
	"InsuranceContract.sol": {
		"InsuranceContract": {
			"abi": [
				{
					"inputs": [],
					"stateMutability": "nonpayable",
					"type": "constructor"
				},
				{
					"anonymous": false,
					"inputs": [
						{
							"indexed": true,
							"internalType": "bytes32",
							"name": "claimId",
							"type": "bytes32"
						},
						{
							"indexed": true,
							"internalType": "address",
							"name": "policyHolder",
							"type": "address"
						},
						{
							"indexed": false,
							"internalType": "uint256",
							"name": "claimAmount",
							"type": "uint256"
						}
					],
					"name": "ClaimSubmitted",
					"type": "event"
				},
				{
					"anonymous": false,
					"inputs": [
						{
							"indexed": true,
							"internalType": "address",
							"name": "policyHolder",
							"type": "address"
						},
						{
							"indexed": false,
							"internalType": "uint256",
							"name": "premium",
							"type": "uint256"
						},
						{
							"indexed": false,
							"internalType": "uint256",
							"name": "coverageAmount",
							"type": "uint256"
						},
						{
							"indexed": false,
							"internalType": "uint256",
							"name": "expirationTimestamp",
							"type": "uint256"
						}
					],
					"name": "PolicyCreated",
					"type": "event"
				},
				{
					"inputs": [
						{
							"internalType": "bytes32",
							"name": "_claimId",
							"type": "bytes32"
						}
					],
					"name": "approveClaim",
					"outputs": [],
					"stateMutability": "nonpayable",
					"type": "function"
				},
				{
					"inputs": [
						{
							"internalType": "bytes32",
							"name": "",
							"type": "bytes32"
						}
					],
					"name": "claims",
					"outputs": [
						{
							"internalType": "address",
							"name": "policyHolder",
							"type": "address"
						},
						{
							"internalType": "uint256",
							"name": "claimAmount",
							"type": "uint256"
						},
						{
							"internalType": "bool",
							"name": "approved",
							"type": "bool"
						},
						{
							"internalType": "bool",
							"name": "exists",
							"type": "bool"
						}
					],
					"stateMutability": "view",
					"type": "function"
				},
				{
					"inputs": [],
					"name": "insurerAddress",
					"outputs": [
						{
							"internalType": "address",
							"name": "",
							"type": "address"
						}
					],
					"stateMutability": "view",
					"type": "function"
				},
				{
					"inputs": [
						{
							"internalType": "address",
							"name": "",
							"type": "address"
						}
					],
					"name": "policies",
					"outputs": [
						{
							"internalType": "uint256",
							"name": "premium",
							"type": "uint256"
						},
						{
							"internalType": "uint256",
							"name": "coverageAmount",
							"type": "uint256"
						},
						{
							"internalType": "uint256",
							"name": "expirationTimestamp",
							"type": "uint256"
						},
						{
							"internalType": "bool",
							"name": "active",
							"type": "bool"
						}
					],
					"stateMutability": "view",
					"type": "function"
				},
				{
					"inputs": [
						{
							"internalType": "uint256",
							"name": "_coverageAmount",
							"type": "uint256"
						},
						{
							"internalType": "uint256",
							"name": "_expirationTimestamp",
							"type": "uint256"
						}
					],
					"name": "purchasePolicy",
					"outputs": [],
					"stateMutability": "payable",
					"type": "function"
				},
				{
					"inputs": [],
					"name": "submitClaim",
					"outputs": [],
					"stateMutability": "nonpayable",
					"type": "function"
				}
			],
			"devdoc": {
				"kind": "dev",
				"methods": {},
				"version": 1
			},
			"evm": {
				"assembly": "    /* \"InsuranceContract.sol\":64:2575  contract InsuranceContract {... */\n  mstore(0x40, 0x80)\n    /* \"InsuranceContract.sol\":1985:2114  constructor() {... */\n  callvalue\n  dup1\n  iszero\n  tag_1\n  jumpi\n  0x00\n  dup1\n  revert\ntag_1:\n  pop\n    /* \"InsuranceContract.sol\":2023:2033  msg.sender */\n  caller\n    /* \"InsuranceContract.sol\":2006:2020  insurerAddress */\n  0x02\n  0x00\n    /* \"InsuranceContract.sol\":2006:2033  insurerAddress = msg.sender */\n  0x0100\n  exp\n  dup2\n  sload\n  dup2\n  0xffffffffffffffffffffffffffffffffffffffff\n  mul\n  not\n  and\n  swap1\n  dup4\n  0xffffffffffffffffffffffffffffffffffffffff\n  and\n  mul\n  or\n  swap1\n  sstore\n  pop\n    /* \"InsuranceContract.sol\":64:2575  contract InsuranceContract {... */\n  dataSize(sub_0)\n  dup1\n  dataOffset(sub_0)\n  0x00\n  codecopy\n  0x00\n  return\nstop\n\nsub_0: assembly {\n        /* \"InsuranceContract.sol\":64:2575  contract InsuranceContract {... */\n      mstore(0x40, 0x80)\n      jumpi(tag_1, lt(calldatasize, 0x04))\n      shr(0xe0, calldataload(0x00))\n      dup1\n      0x0b6485ae\n      eq\n      tag_2\n      jumpi\n      dup1\n      0x1afbd128\n      eq\n      tag_3\n      jumpi\n      dup1\n      0x20e98698\n      eq\n      tag_4\n      jumpi\n      dup1\n      0x3719f096\n      eq\n      tag_5\n      jumpi\n      dup1\n      0xa7c0900e\n      eq\n      tag_6\n      jumpi\n      dup1\n      0xeff0f592\n      eq\n      tag_7\n      jumpi\n    tag_1:\n      0x00\n      dup1\n      revert\n        /* \"InsuranceContract.sol\":738:1293  function purchasePolicy(uint _coverageAmount, uint _expirationTimestamp) external payable {... */\n    tag_2:\n      tag_8\n      0x04\n      dup1\n      calldatasize\n      sub\n      dup2\n      add\n      swap1\n      tag_9\n      swap2\n      swap1\n      tag_10\n      jump\t// in\n    tag_9:\n      tag_11\n      jump\t// in\n    tag_8:\n      stop\n        /* \"InsuranceContract.sol\":1307:1899  function submitClaim() external {... */\n    tag_3:\n      callvalue\n      dup1\n      iszero\n      tag_12\n      jumpi\n      0x00\n      dup1\n      revert\n    tag_12:\n      pop\n      tag_13\n      tag_14\n      jump\t// in\n    tag_13:\n      stop\n        /* \"InsuranceContract.sol\":396:438  mapping(address => Policy) public policies */\n    tag_4:\n      callvalue\n      dup1\n      iszero\n      tag_15\n      jumpi\n      0x00\n      dup1\n      revert\n    tag_15:\n      pop\n      tag_16\n      0x04\n      dup1\n      calldatasize\n      sub\n      dup2\n      add\n      swap1\n      tag_17\n      swap2\n      swap1\n      tag_18\n      jump\t// in\n    tag_17:\n      tag_19\n      jump\t// in\n    tag_16:\n      mload(0x40)\n      tag_20\n      swap5\n      swap4\n      swap3\n      swap2\n      swap1\n      tag_21\n      jump\t// in\n    tag_20:\n      mload(0x40)\n      dup1\n      swap2\n      sub\n      swap1\n      return\n        /* \"InsuranceContract.sol\":2194:2572  function approveClaim(bytes32 _claimId) external {... */\n    tag_5:\n      callvalue\n      dup1\n      iszero\n      tag_22\n      jumpi\n      0x00\n      dup1\n      revert\n    tag_22:\n      pop\n      tag_23\n      0x04\n      dup1\n      calldatasize\n      sub\n      dup2\n      add\n      swap1\n      tag_24\n      swap2\n      swap1\n      tag_25\n      jump\t// in\n    tag_24:\n      tag_26\n      jump\t// in\n    tag_23:\n      stop\n        /* \"InsuranceContract.sol\":1908:1937  address public insurerAddress */\n    tag_6:\n      callvalue\n      dup1\n      iszero\n      tag_27\n      jumpi\n      0x00\n      dup1\n      revert\n    tag_27:\n      pop\n      tag_28\n      tag_29\n      jump\t// in\n    tag_28:\n      mload(0x40)\n      tag_30\n      swap2\n      swap1\n      tag_31\n      jump\t// in\n    tag_30:\n      mload(0x40)\n      dup1\n      swap2\n      sub\n      swap1\n      return\n        /* \"InsuranceContract.sol\":453:492  mapping(bytes32 => Claim) public claims */\n    tag_7:\n      callvalue\n      dup1\n      iszero\n      tag_32\n      jumpi\n      0x00\n      dup1\n      revert\n    tag_32:\n      pop\n      tag_33\n      0x04\n      dup1\n      calldatasize\n      sub\n      dup2\n      add\n      swap1\n      tag_34\n      swap2\n      swap1\n      tag_25\n      jump\t// in\n    tag_34:\n      tag_35\n      jump\t// in\n    tag_33:\n      mload(0x40)\n      tag_36\n      swap5\n      swap4\n      swap3\n      swap2\n      swap1\n      tag_37\n      jump\t// in\n    tag_36:\n      mload(0x40)\n      dup1\n      swap2\n      sub\n      swap1\n      return\n        /* \"InsuranceContract.sol\":738:1293  function purchasePolicy(uint _coverageAmount, uint _expirationTimestamp) external payable {... */\n    tag_11:\n        /* \"InsuranceContract.sol\":859:860  0 */\n      0x00\n        /* \"InsuranceContract.sol\":847:856  msg.value */\n      callvalue\n        /* \"InsuranceContract.sol\":847:860  msg.value > 0 */\n      gt\n        /* \"InsuranceContract.sol\":839:902  require(msg.value > 0, \"Premium amount must be greater than 0\") */\n      tag_39\n      jumpi\n      mload(0x40)\n      0x08c379a000000000000000000000000000000000000000000000000000000000\n      dup2\n      mstore\n      0x04\n      add\n      tag_40\n      swap1\n      tag_41\n      jump\t// in\n    tag_40:\n      mload(0x40)\n      dup1\n      swap2\n      sub\n      swap1\n      revert\n    tag_39:\n        /* \"InsuranceContract.sol\":922:930  policies */\n      0x00\n        /* \"InsuranceContract.sol\":922:942  policies[msg.sender] */\n      dup1\n        /* \"InsuranceContract.sol\":931:941  msg.sender */\n      caller\n        /* \"InsuranceContract.sol\":922:942  policies[msg.sender] */\n      0xffffffffffffffffffffffffffffffffffffffff\n      and\n      0xffffffffffffffffffffffffffffffffffffffff\n      and\n      dup2\n      mstore\n      0x20\n      add\n      swap1\n      dup2\n      mstore\n      0x20\n      add\n      0x00\n      keccak256\n        /* \"InsuranceContract.sol\":922:949  policies[msg.sender].active */\n      0x03\n      add\n      0x00\n      swap1\n      sload\n      swap1\n      0x0100\n      exp\n      swap1\n      div\n      0xff\n      and\n        /* \"InsuranceContract.sol\":921:949  !policies[msg.sender].active */\n      iszero\n        /* \"InsuranceContract.sol\":913:975  require(!policies[msg.sender].active, \"Policy already active\") */\n      tag_42\n      jumpi\n      mload(0x40)\n      0x08c379a000000000000000000000000000000000000000000000000000000000\n      dup2\n      mstore\n      0x04\n      add\n      tag_43\n      swap1\n      tag_44\n      jump\t// in\n    tag_43:\n      mload(0x40)\n      dup1\n      swap2\n      sub\n      swap1\n      revert\n    tag_42:\n        /* \"InsuranceContract.sol\":1011:1192  Policy({... */\n      mload(0x40)\n      dup1\n      0x80\n      add\n      0x40\n      mstore\n      dup1\n        /* \"InsuranceContract.sol\":1042:1051  msg.value */\n      callvalue\n        /* \"InsuranceContract.sol\":1011:1192  Policy({... */\n      dup2\n      mstore\n      0x20\n      add\n        /* \"InsuranceContract.sol\":1082:1097  _coverageAmount */\n      dup4\n        /* \"InsuranceContract.sol\":1011:1192  Policy({... */\n      dup2\n      mstore\n      0x20\n      add\n        /* \"InsuranceContract.sol\":1133:1153  _expirationTimestamp */\n      dup3\n        /* \"InsuranceContract.sol\":1011:1192  Policy({... */\n      dup2\n      mstore\n      0x20\n      add\n        /* \"InsuranceContract.sol\":1176:1180  true */\n      0x01\n        /* \"InsuranceContract.sol\":1011:1192  Policy({... */\n      iszero\n      iszero\n      dup2\n      mstore\n      pop\n        /* \"InsuranceContract.sol\":988:996  policies */\n      0x00\n        /* \"InsuranceContract.sol\":988:1008  policies[msg.sender] */\n      dup1\n        /* \"InsuranceContract.sol\":997:1007  msg.sender */\n      caller\n        /* \"InsuranceContract.sol\":988:1008  policies[msg.sender] */\n      0xffffffffffffffffffffffffffffffffffffffff\n      and\n      0xffffffffffffffffffffffffffffffffffffffff\n      and\n      dup2\n      mstore\n      0x20\n      add\n      swap1\n      dup2\n      mstore\n      0x20\n      add\n      0x00\n      keccak256\n        /* \"InsuranceContract.sol\":988:1192  policies[msg.sender] = Policy({... */\n      0x00\n      dup3\n      add\n      mload\n      dup2\n      0x00\n      add\n      sstore\n      0x20\n      dup3\n      add\n      mload\n      dup2\n      0x01\n      add\n      sstore\n      0x40\n      dup3\n      add\n      mload\n      dup2\n      0x02\n      add\n      sstore\n      0x60\n      dup3\n      add\n      mload\n      dup2\n      0x03\n      add\n      exp(0x0100, 0x00)\n      dup2\n      sload\n      dup2\n      0xff\n      mul\n      not\n      and\n      swap1\n      dup4\n      iszero\n      iszero\n      mul\n      or\n      swap1\n      sstore\n      pop\n      swap1\n      pop\n      pop\n        /* \"InsuranceContract.sol\":1224:1234  msg.sender */\n      caller\n        /* \"InsuranceContract.sol\":1210:1285  PolicyCreated(msg.sender, msg.value, _coverageAmount, _expirationTimestamp) */\n      0xffffffffffffffffffffffffffffffffffffffff\n      and\n      0x7d02b09c49332ca74071d4d7d88d4220ec928f86ec5d8773c6faeae4ca86c5b0\n        /* \"InsuranceContract.sol\":1236:1245  msg.value */\n      callvalue\n        /* \"InsuranceContract.sol\":1247:1262  _coverageAmount */\n      dup5\n        /* \"InsuranceContract.sol\":1264:1284  _expirationTimestamp */\n      dup5\n        /* \"InsuranceContract.sol\":1210:1285  PolicyCreated(msg.sender, msg.value, _coverageAmount, _expirationTimestamp) */\n      mload(0x40)\n      tag_45\n      swap4\n      swap3\n      swap2\n      swap1\n      tag_46\n      jump\t// in\n    tag_45:\n      mload(0x40)\n      dup1\n      swap2\n      sub\n      swap1\n      log2\n        /* \"InsuranceContract.sol\":738:1293  function purchasePolicy(uint _coverageAmount, uint _expirationTimestamp) external payable {... */\n      pop\n      pop\n      jump\t// out\n        /* \"InsuranceContract.sol\":1307:1899  function submitClaim() external {... */\n    tag_14:\n        /* \"InsuranceContract.sol\":1358:1366  policies */\n      0x00\n        /* \"InsuranceContract.sol\":1358:1378  policies[msg.sender] */\n      dup1\n        /* \"InsuranceContract.sol\":1367:1377  msg.sender */\n      caller\n        /* \"InsuranceContract.sol\":1358:1378  policies[msg.sender] */\n      0xffffffffffffffffffffffffffffffffffffffff\n      and\n      0xffffffffffffffffffffffffffffffffffffffff\n      and\n      dup2\n      mstore\n      0x20\n      add\n      swap1\n      dup2\n      mstore\n      0x20\n      add\n      0x00\n      keccak256\n        /* \"InsuranceContract.sol\":1358:1385  policies[msg.sender].active */\n      0x03\n      add\n      0x00\n      swap1\n      sload\n      swap1\n      0x0100\n      exp\n      swap1\n      div\n      0xff\n      and\n        /* \"InsuranceContract.sol\":1350:1412  require(policies[msg.sender].active, \"No active policy found\") */\n      tag_48\n      jumpi\n      mload(0x40)\n      0x08c379a000000000000000000000000000000000000000000000000000000000\n      dup2\n      mstore\n      0x04\n      add\n      tag_49\n      swap1\n      tag_50\n      jump\t// in\n    tag_49:\n      mload(0x40)\n      dup1\n      swap2\n      sub\n      swap1\n      revert\n    tag_48:\n        /* \"InsuranceContract.sol\":1449:1457  policies */\n      0x00\n        /* \"InsuranceContract.sol\":1449:1469  policies[msg.sender] */\n      dup1\n        /* \"InsuranceContract.sol\":1458:1468  msg.sender */\n      caller\n        /* \"InsuranceContract.sol\":1449:1469  policies[msg.sender] */\n      0xffffffffffffffffffffffffffffffffffffffff\n      and\n      0xffffffffffffffffffffffffffffffffffffffff\n      and\n      dup2\n      mstore\n      0x20\n      add\n      swap1\n      dup2\n      mstore\n      0x20\n      add\n      0x00\n      keccak256\n        /* \"InsuranceContract.sol\":1449:1489  policies[msg.sender].expirationTimestamp */\n      0x02\n      add\n      sload\n        /* \"InsuranceContract.sol\":1431:1446  block.timestamp */\n      timestamp\n        /* \"InsuranceContract.sol\":1431:1489  block.timestamp < policies[msg.sender].expirationTimestamp */\n      lt\n        /* \"InsuranceContract.sol\":1423:1508  require(block.timestamp < policies[msg.sender].expirationTimestamp, \"Policy expired\") */\n      tag_51\n      jumpi\n      mload(0x40)\n      0x08c379a000000000000000000000000000000000000000000000000000000000\n      dup2\n      mstore\n      0x04\n      add\n      tag_52\n      swap1\n      tag_53\n      jump\t// in\n    tag_52:\n      mload(0x40)\n      dup1\n      swap2\n      sub\n      swap1\n      revert\n    tag_51:\n        /* \"InsuranceContract.sol\":1521:1536  bytes32 claimId */\n      0x00\n        /* \"InsuranceContract.sol\":1566:1576  msg.sender */\n      caller\n        /* \"InsuranceContract.sol\":1578:1593  block.timestamp */\n      timestamp\n        /* \"InsuranceContract.sol\":1549:1594  abi.encodePacked(msg.sender, block.timestamp) */\n      add(0x20, mload(0x40))\n      tag_54\n      swap3\n      swap2\n      swap1\n      tag_55\n      jump\t// in\n    tag_54:\n      mload(0x40)\n      0x20\n      dup2\n      dup4\n      sub\n      sub\n      dup2\n      mstore\n      swap1\n      0x40\n      mstore\n        /* \"InsuranceContract.sol\":1539:1595  keccak256(abi.encodePacked(msg.sender, block.timestamp)) */\n      dup1\n      mload\n      swap1\n      0x20\n      add\n      keccak256\n        /* \"InsuranceContract.sol\":1521:1595  bytes32 claimId = keccak256(abi.encodePacked(msg.sender, block.timestamp)) */\n      swap1\n      pop\n        /* \"InsuranceContract.sol\":1624:1801  Claim({... */\n      mload(0x40)\n      dup1\n      0x80\n      add\n      0x40\n      mstore\n      dup1\n        /* \"InsuranceContract.sol\":1659:1669  msg.sender */\n      caller\n        /* \"InsuranceContract.sol\":1624:1801  Claim({... */\n      0xffffffffffffffffffffffffffffffffffffffff\n      and\n      dup2\n      mstore\n      0x20\n      add\n        /* \"InsuranceContract.sol\":1697:1705  policies */\n      0x00\n        /* \"InsuranceContract.sol\":1697:1717  policies[msg.sender] */\n      dup1\n        /* \"InsuranceContract.sol\":1706:1716  msg.sender */\n      caller\n        /* \"InsuranceContract.sol\":1697:1717  policies[msg.sender] */\n      0xffffffffffffffffffffffffffffffffffffffff\n      and\n      0xffffffffffffffffffffffffffffffffffffffff\n      and\n      dup2\n      mstore\n      0x20\n      add\n      swap1\n      dup2\n      mstore\n      0x20\n      add\n      0x00\n      keccak256\n        /* \"InsuranceContract.sol\":1697:1732  policies[msg.sender].coverageAmount */\n      0x01\n      add\n      sload\n        /* \"InsuranceContract.sol\":1624:1801  Claim({... */\n      dup2\n      mstore\n      0x20\n      add\n        /* \"InsuranceContract.sol\":1757:1762  false */\n      0x00\n        /* \"InsuranceContract.sol\":1624:1801  Claim({... */\n      iszero\n      iszero\n      dup2\n      mstore\n      0x20\n      add\n        /* \"InsuranceContract.sol\":1785:1789  true */\n      0x01\n        /* \"InsuranceContract.sol\":1624:1801  Claim({... */\n      iszero\n      iszero\n      dup2\n      mstore\n      pop\n        /* \"InsuranceContract.sol\":1606:1612  claims */\n      0x01\n        /* \"InsuranceContract.sol\":1606:1621  claims[claimId] */\n      0x00\n        /* \"InsuranceContract.sol\":1613:1620  claimId */\n      dup4\n        /* \"InsuranceContract.sol\":1606:1621  claims[claimId] */\n      dup2\n      mstore\n      0x20\n      add\n      swap1\n      dup2\n      mstore\n      0x20\n      add\n      0x00\n      keccak256\n        /* \"InsuranceContract.sol\":1606:1801  claims[claimId] = Claim({... */\n      0x00\n      dup3\n      add\n      mload\n      dup2\n      0x00\n      add\n      exp(0x0100, 0x00)\n      dup2\n      sload\n      dup2\n      0xffffffffffffffffffffffffffffffffffffffff\n      mul\n      not\n      and\n      swap1\n      dup4\n      0xffffffffffffffffffffffffffffffffffffffff\n      and\n      mul\n      or\n      swap1\n      sstore\n      pop\n      0x20\n      dup3\n      add\n      mload\n      dup2\n      0x01\n      add\n      sstore\n      0x40\n      dup3\n      add\n      mload\n      dup2\n      0x02\n      add\n      exp(0x0100, 0x00)\n      dup2\n      sload\n      dup2\n      0xff\n      mul\n      not\n      and\n      swap1\n      dup4\n      iszero\n      iszero\n      mul\n      or\n      swap1\n      sstore\n      pop\n      0x60\n      dup3\n      add\n      mload\n      dup2\n      0x02\n      add\n      exp(0x0100, 0x01)\n      dup2\n      sload\n      dup2\n      0xff\n      mul\n      not\n      and\n      swap1\n      dup4\n      iszero\n      iszero\n      mul\n      or\n      swap1\n      sstore\n      pop\n      swap1\n      pop\n      pop\n        /* \"InsuranceContract.sol\":1843:1853  msg.sender */\n      caller\n        /* \"InsuranceContract.sol\":1819:1891  ClaimSubmitted(claimId, msg.sender, policies[msg.sender].coverageAmount) */\n      0xffffffffffffffffffffffffffffffffffffffff\n      and\n        /* \"InsuranceContract.sol\":1834:1841  claimId */\n      dup2\n        /* \"InsuranceContract.sol\":1819:1891  ClaimSubmitted(claimId, msg.sender, policies[msg.sender].coverageAmount) */\n      0x1665e1c97806685a93c554916a5120e8af7533d54614518edcff6f400d8a7d08\n        /* \"InsuranceContract.sol\":1855:1863  policies */\n      0x00\n        /* \"InsuranceContract.sol\":1855:1875  policies[msg.sender] */\n      dup1\n        /* \"InsuranceContract.sol\":1864:1874  msg.sender */\n      caller\n        /* \"InsuranceContract.sol\":1855:1875  policies[msg.sender] */\n      0xffffffffffffffffffffffffffffffffffffffff\n      and\n      0xffffffffffffffffffffffffffffffffffffffff\n      and\n      dup2\n      mstore\n      0x20\n      add\n      swap1\n      dup2\n      mstore\n      0x20\n      add\n      0x00\n      keccak256\n        /* \"InsuranceContract.sol\":1855:1890  policies[msg.sender].coverageAmount */\n      0x01\n      add\n      sload\n        /* \"InsuranceContract.sol\":1819:1891  ClaimSubmitted(claimId, msg.sender, policies[msg.sender].coverageAmount) */\n      mload(0x40)\n      tag_56\n      swap2\n      swap1\n      tag_57\n      jump\t// in\n    tag_56:\n      mload(0x40)\n      dup1\n      swap2\n      sub\n      swap1\n      log3\n        /* \"InsuranceContract.sol\":1339:1899  {... */\n      pop\n        /* \"InsuranceContract.sol\":1307:1899  function submitClaim() external {... */\n      jump\t// out\n        /* \"InsuranceContract.sol\":396:438  mapping(address => Policy) public policies */\n    tag_19:\n      mstore(0x20, 0x00)\n      dup1\n      0x00\n      mstore\n      keccak256(0x00, 0x40)\n      0x00\n      swap2\n      pop\n      swap1\n      pop\n      dup1\n      0x00\n      add\n      sload\n      swap1\n      dup1\n      0x01\n      add\n      sload\n      swap1\n      dup1\n      0x02\n      add\n      sload\n      swap1\n      dup1\n      0x03\n      add\n      0x00\n      swap1\n      sload\n      swap1\n      0x0100\n      exp\n      swap1\n      div\n      0xff\n      and\n      swap1\n      pop\n      dup5\n      jump\t// out\n        /* \"InsuranceContract.sol\":2194:2572  function approveClaim(bytes32 _claimId) external {... */\n    tag_26:\n        /* \"InsuranceContract.sol\":2276:2290  insurerAddress */\n      0x02\n      0x00\n      swap1\n      sload\n      swap1\n      0x0100\n      exp\n      swap1\n      div\n      0xffffffffffffffffffffffffffffffffffffffff\n      and\n        /* \"InsuranceContract.sol\":2262:2290  msg.sender == insurerAddress */\n      0xffffffffffffffffffffffffffffffffffffffff\n      and\n        /* \"InsuranceContract.sol\":2262:2272  msg.sender */\n      caller\n        /* \"InsuranceContract.sol\":2262:2290  msg.sender == insurerAddress */\n      0xffffffffffffffffffffffffffffffffffffffff\n      and\n      eq\n        /* \"InsuranceContract.sol\":2254:2326  require(msg.sender == insurerAddress, \"Only insurer can approve claims\") */\n      tag_59\n      jumpi\n      mload(0x40)\n      0x08c379a000000000000000000000000000000000000000000000000000000000\n      dup2\n      mstore\n      0x04\n      add\n      tag_60\n      swap1\n      tag_61\n      jump\t// in\n    tag_60:\n      mload(0x40)\n      dup1\n      swap2\n      sub\n      swap1\n      revert\n    tag_59:\n        /* \"InsuranceContract.sol\":2345:2351  claims */\n      0x01\n        /* \"InsuranceContract.sol\":2345:2361  claims[_claimId] */\n      0x00\n        /* \"InsuranceContract.sol\":2352:2360  _claimId */\n      dup3\n        /* \"InsuranceContract.sol\":2345:2361  claims[_claimId] */\n      dup2\n      mstore\n      0x20\n      add\n      swap1\n      dup2\n      mstore\n      0x20\n      add\n      0x00\n      keccak256\n        /* \"InsuranceContract.sol\":2345:2368  claims[_claimId].exists */\n      0x02\n      add\n      0x01\n      swap1\n      sload\n      swap1\n      0x0100\n      exp\n      swap1\n      div\n      0xff\n      and\n        /* \"InsuranceContract.sol\":2337:2393  require(claims[_claimId].exists, \"Claim does not exist\") */\n      tag_62\n      jumpi\n      mload(0x40)\n      0x08c379a000000000000000000000000000000000000000000000000000000000\n      dup2\n      mstore\n      0x04\n      add\n      tag_63\n      swap1\n      tag_64\n      jump\t// in\n    tag_63:\n      mload(0x40)\n      dup1\n      swap2\n      sub\n      swap1\n      revert\n    tag_62:\n        /* \"InsuranceContract.sol\":2434:2438  true */\n      0x01\n        /* \"InsuranceContract.sol\":2406:2412  claims */\n      dup1\n        /* \"InsuranceContract.sol\":2406:2422  claims[_claimId] */\n      0x00\n        /* \"InsuranceContract.sol\":2413:2421  _claimId */\n      dup4\n        /* \"InsuranceContract.sol\":2406:2422  claims[_claimId] */\n      dup2\n      mstore\n      0x20\n      add\n      swap1\n      dup2\n      mstore\n      0x20\n      add\n      0x00\n      keccak256\n        /* \"InsuranceContract.sol\":2406:2431  claims[_claimId].approved */\n      0x02\n      add\n      0x00\n        /* \"InsuranceContract.sol\":2406:2438  claims[_claimId].approved = true */\n      0x0100\n      exp\n      dup2\n      sload\n      dup2\n      0xff\n      mul\n      not\n      and\n      swap1\n      dup4\n      iszero\n      iszero\n      mul\n      or\n      swap1\n      sstore\n      pop\n        /* \"InsuranceContract.sol\":2495:2501  claims */\n      0x01\n        /* \"InsuranceContract.sol\":2495:2511  claims[_claimId] */\n      0x00\n        /* \"InsuranceContract.sol\":2502:2510  _claimId */\n      dup3\n        /* \"InsuranceContract.sol\":2495:2511  claims[_claimId] */\n      dup2\n      mstore\n      0x20\n      add\n      swap1\n      dup2\n      mstore\n      0x20\n      add\n      0x00\n      keccak256\n        /* \"InsuranceContract.sol\":2495:2524  claims[_claimId].policyHolder */\n      0x00\n      add\n      0x00\n      swap1\n      sload\n      swap1\n      0x0100\n      exp\n      swap1\n      div\n      0xffffffffffffffffffffffffffffffffffffffff\n      and\n        /* \"InsuranceContract.sol\":2487:2534  payable(claims[_claimId].policyHolder).transfer */\n      0xffffffffffffffffffffffffffffffffffffffff\n      and\n        /* \"InsuranceContract.sol\":2487:2564  payable(claims[_claimId].policyHolder).transfer(claims[_claimId].claimAmount) */\n      0x08fc\n        /* \"InsuranceContract.sol\":2535:2541  claims */\n      0x01\n        /* \"InsuranceContract.sol\":2535:2551  claims[_claimId] */\n      0x00\n        /* \"InsuranceContract.sol\":2542:2550  _claimId */\n      dup5\n        /* \"InsuranceContract.sol\":2535:2551  claims[_claimId] */\n      dup2\n      mstore\n      0x20\n      add\n      swap1\n      dup2\n      mstore\n      0x20\n      add\n      0x00\n      keccak256\n        /* \"InsuranceContract.sol\":2535:2563  claims[_claimId].claimAmount */\n      0x01\n      add\n      sload\n        /* \"InsuranceContract.sol\":2487:2564  payable(claims[_claimId].policyHolder).transfer(claims[_claimId].claimAmount) */\n      swap1\n      dup2\n      iszero\n      mul\n      swap1\n      mload(0x40)\n      0x00\n      mload(0x40)\n      dup1\n      dup4\n      sub\n      dup2\n      dup6\n      dup9\n      dup9\n      call\n      swap4\n      pop\n      pop\n      pop\n      pop\n      iszero\n      dup1\n      iszero\n      tag_66\n      jumpi\n      returndatasize\n      0x00\n      dup1\n      returndatacopy\n      revert(0x00, returndatasize)\n    tag_66:\n      pop\n        /* \"InsuranceContract.sol\":2194:2572  function approveClaim(bytes32 _claimId) external {... */\n      pop\n      jump\t// out\n        /* \"InsuranceContract.sol\":1908:1937  address public insurerAddress */\n    tag_29:\n      0x02\n      0x00\n      swap1\n      sload\n      swap1\n      0x0100\n      exp\n      swap1\n      div\n      0xffffffffffffffffffffffffffffffffffffffff\n      and\n      dup2\n      jump\t// out\n        /* \"InsuranceContract.sol\":453:492  mapping(bytes32 => Claim) public claims */\n    tag_35:\n      mstore(0x20, 0x01)\n      dup1\n      0x00\n      mstore\n      keccak256(0x00, 0x40)\n      0x00\n      swap2\n      pop\n      swap1\n      pop\n      dup1\n      0x00\n      add\n      0x00\n      swap1\n      sload\n      swap1\n      0x0100\n      exp\n      swap1\n      div\n      0xffffffffffffffffffffffffffffffffffffffff\n      and\n      swap1\n      dup1\n      0x01\n      add\n      sload\n      swap1\n      dup1\n      0x02\n      add\n      0x00\n      swap1\n      sload\n      swap1\n      0x0100\n      exp\n      swap1\n      div\n      0xff\n      and\n      swap1\n      dup1\n      0x02\n      add\n      0x01\n      swap1\n      sload\n      swap1\n      0x0100\n      exp\n      swap1\n      div\n      0xff\n      and\n      swap1\n      pop\n      dup5\n      jump\t// out\n        /* \"#utility.yul\":88:205   */\n    tag_68:\n        /* \"#utility.yul\":197:198   */\n      0x00\n        /* \"#utility.yul\":194:195   */\n      dup1\n        /* \"#utility.yul\":187:199   */\n      revert\n        /* \"#utility.yul\":334:411   */\n    tag_70:\n        /* \"#utility.yul\":371:378   */\n      0x00\n        /* \"#utility.yul\":400:405   */\n      dup2\n        /* \"#utility.yul\":389:405   */\n      swap1\n      pop\n        /* \"#utility.yul\":334:411   */\n      swap2\n      swap1\n      pop\n      jump\t// out\n        /* \"#utility.yul\":417:539   */\n    tag_71:\n        /* \"#utility.yul\":490:514   */\n      tag_109\n        /* \"#utility.yul\":508:513   */\n      dup2\n        /* \"#utility.yul\":490:514   */\n      tag_70\n      jump\t// in\n    tag_109:\n        /* \"#utility.yul\":483:488   */\n      dup2\n        /* \"#utility.yul\":480:515   */\n      eq\n        /* \"#utility.yul\":470:533   */\n      tag_110\n      jumpi\n        /* \"#utility.yul\":529:530   */\n      0x00\n        /* \"#utility.yul\":526:527   */\n      dup1\n        /* \"#utility.yul\":519:531   */\n      revert\n        /* \"#utility.yul\":470:533   */\n    tag_110:\n        /* \"#utility.yul\":417:539   */\n      pop\n      jump\t// out\n        /* \"#utility.yul\":545:684   */\n    tag_72:\n        /* \"#utility.yul\":591:596   */\n      0x00\n        /* \"#utility.yul\":629:635   */\n      dup2\n        /* \"#utility.yul\":616:636   */\n      calldataload\n        /* \"#utility.yul\":607:636   */\n      swap1\n      pop\n        /* \"#utility.yul\":645:678   */\n      tag_112\n        /* \"#utility.yul\":672:677   */\n      dup2\n        /* \"#utility.yul\":645:678   */\n      tag_71\n      jump\t// in\n    tag_112:\n        /* \"#utility.yul\":545:684   */\n      swap3\n      swap2\n      pop\n      pop\n      jump\t// out\n        /* \"#utility.yul\":690:1164   */\n    tag_10:\n        /* \"#utility.yul\":758:764   */\n      0x00\n        /* \"#utility.yul\":766:772   */\n      dup1\n        /* \"#utility.yul\":815:817   */\n      0x40\n        /* \"#utility.yul\":803:812   */\n      dup4\n        /* \"#utility.yul\":794:801   */\n      dup6\n        /* \"#utility.yul\":790:813   */\n      sub\n        /* \"#utility.yul\":786:818   */\n      slt\n        /* \"#utility.yul\":783:902   */\n      iszero\n      tag_114\n      jumpi\n        /* \"#utility.yul\":821:900   */\n      tag_115\n      tag_68\n      jump\t// in\n    tag_115:\n        /* \"#utility.yul\":783:902   */\n    tag_114:\n        /* \"#utility.yul\":941:942   */\n      0x00\n        /* \"#utility.yul\":966:1019   */\n      tag_116\n        /* \"#utility.yul\":1011:1018   */\n      dup6\n        /* \"#utility.yul\":1002:1008   */\n      dup3\n        /* \"#utility.yul\":991:1000   */\n      dup7\n        /* \"#utility.yul\":987:1009   */\n      add\n        /* \"#utility.yul\":966:1019   */\n      tag_72\n      jump\t// in\n    tag_116:\n        /* \"#utility.yul\":956:1019   */\n      swap3\n      pop\n        /* \"#utility.yul\":912:1029   */\n      pop\n        /* \"#utility.yul\":1068:1070   */\n      0x20\n        /* \"#utility.yul\":1094:1147   */\n      tag_117\n        /* \"#utility.yul\":1139:1146   */\n      dup6\n        /* \"#utility.yul\":1130:1136   */\n      dup3\n        /* \"#utility.yul\":1119:1128   */\n      dup7\n        /* \"#utility.yul\":1115:1137   */\n      add\n        /* \"#utility.yul\":1094:1147   */\n      tag_72\n      jump\t// in\n    tag_117:\n        /* \"#utility.yul\":1084:1147   */\n      swap2\n      pop\n        /* \"#utility.yul\":1039:1157   */\n      pop\n        /* \"#utility.yul\":690:1164   */\n      swap3\n      pop\n      swap3\n      swap1\n      pop\n      jump\t// out\n        /* \"#utility.yul\":1170:1296   */\n    tag_73:\n        /* \"#utility.yul\":1207:1214   */\n      0x00\n        /* \"#utility.yul\":1247:1289   */\n      0xffffffffffffffffffffffffffffffffffffffff\n        /* \"#utility.yul\":1240:1245   */\n      dup3\n        /* \"#utility.yul\":1236:1290   */\n      and\n        /* \"#utility.yul\":1225:1290   */\n      swap1\n      pop\n        /* \"#utility.yul\":1170:1296   */\n      swap2\n      swap1\n      pop\n      jump\t// out\n        /* \"#utility.yul\":1302:1398   */\n    tag_74:\n        /* \"#utility.yul\":1339:1346   */\n      0x00\n        /* \"#utility.yul\":1368:1392   */\n      tag_120\n        /* \"#utility.yul\":1386:1391   */\n      dup3\n        /* \"#utility.yul\":1368:1392   */\n      tag_73\n      jump\t// in\n    tag_120:\n        /* \"#utility.yul\":1357:1392   */\n      swap1\n      pop\n        /* \"#utility.yul\":1302:1398   */\n      swap2\n      swap1\n      pop\n      jump\t// out\n        /* \"#utility.yul\":1404:1526   */\n    tag_75:\n        /* \"#utility.yul\":1477:1501   */\n      tag_122\n        /* \"#utility.yul\":1495:1500   */\n      dup2\n        /* \"#utility.yul\":1477:1501   */\n      tag_74\n      jump\t// in\n    tag_122:\n        /* \"#utility.yul\":1470:1475   */\n      dup2\n        /* \"#utility.yul\":1467:1502   */\n      eq\n        /* \"#utility.yul\":1457:1520   */\n      tag_123\n      jumpi\n        /* \"#utility.yul\":1516:1517   */\n      0x00\n        /* \"#utility.yul\":1513:1514   */\n      dup1\n        /* \"#utility.yul\":1506:1518   */\n      revert\n        /* \"#utility.yul\":1457:1520   */\n    tag_123:\n        /* \"#utility.yul\":1404:1526   */\n      pop\n      jump\t// out\n        /* \"#utility.yul\":1532:1671   */\n    tag_76:\n        /* \"#utility.yul\":1578:1583   */\n      0x00\n        /* \"#utility.yul\":1616:1622   */\n      dup2\n        /* \"#utility.yul\":1603:1623   */\n      calldataload\n        /* \"#utility.yul\":1594:1623   */\n      swap1\n      pop\n        /* \"#utility.yul\":1632:1665   */\n      tag_125\n        /* \"#utility.yul\":1659:1664   */\n      dup2\n        /* \"#utility.yul\":1632:1665   */\n      tag_75\n      jump\t// in\n    tag_125:\n        /* \"#utility.yul\":1532:1671   */\n      swap3\n      swap2\n      pop\n      pop\n      jump\t// out\n        /* \"#utility.yul\":1677:2006   */\n    tag_18:\n        /* \"#utility.yul\":1736:1742   */\n      0x00\n        /* \"#utility.yul\":1785:1787   */\n      0x20\n        /* \"#utility.yul\":1773:1782   */\n      dup3\n        /* \"#utility.yul\":1764:1771   */\n      dup5\n        /* \"#utility.yul\":1760:1783   */\n      sub\n        /* \"#utility.yul\":1756:1788   */\n      slt\n        /* \"#utility.yul\":1753:1872   */\n      iszero\n      tag_127\n      jumpi\n        /* \"#utility.yul\":1791:1870   */\n      tag_128\n      tag_68\n      jump\t// in\n    tag_128:\n        /* \"#utility.yul\":1753:1872   */\n    tag_127:\n        /* \"#utility.yul\":1911:1912   */\n      0x00\n        /* \"#utility.yul\":1936:1989   */\n      tag_129\n        /* \"#utility.yul\":1981:1988   */\n      dup5\n        /* \"#utility.yul\":1972:1978   */\n      dup3\n        /* \"#utility.yul\":1961:1970   */\n      dup6\n        /* \"#utility.yul\":1957:1979   */\n      add\n        /* \"#utility.yul\":1936:1989   */\n      tag_76\n      jump\t// in\n    tag_129:\n        /* \"#utility.yul\":1926:1989   */\n      swap2\n      pop\n        /* \"#utility.yul\":1882:1999   */\n      pop\n        /* \"#utility.yul\":1677:2006   */\n      swap3\n      swap2\n      pop\n      pop\n      jump\t// out\n        /* \"#utility.yul\":2012:2130   */\n    tag_77:\n        /* \"#utility.yul\":2099:2123   */\n      tag_131\n        /* \"#utility.yul\":2117:2122   */\n      dup2\n        /* \"#utility.yul\":2099:2123   */\n      tag_70\n      jump\t// in\n    tag_131:\n        /* \"#utility.yul\":2094:2097   */\n      dup3\n        /* \"#utility.yul\":2087:2124   */\n      mstore\n        /* \"#utility.yul\":2012:2130   */\n      pop\n      pop\n      jump\t// out\n        /* \"#utility.yul\":2136:2226   */\n    tag_78:\n        /* \"#utility.yul\":2170:2177   */\n      0x00\n        /* \"#utility.yul\":2213:2218   */\n      dup2\n        /* \"#utility.yul\":2206:2219   */\n      iszero\n        /* \"#utility.yul\":2199:2220   */\n      iszero\n        /* \"#utility.yul\":2188:2220   */\n      swap1\n      pop\n        /* \"#utility.yul\":2136:2226   */\n      swap2\n      swap1\n      pop\n      jump\t// out\n        /* \"#utility.yul\":2232:2341   */\n    tag_79:\n        /* \"#utility.yul\":2313:2334   */\n      tag_134\n        /* \"#utility.yul\":2328:2333   */\n      dup2\n        /* \"#utility.yul\":2313:2334   */\n      tag_78\n      jump\t// in\n    tag_134:\n        /* \"#utility.yul\":2308:2311   */\n      dup3\n        /* \"#utility.yul\":2301:2335   */\n      mstore\n        /* \"#utility.yul\":2232:2341   */\n      pop\n      pop\n      jump\t// out\n        /* \"#utility.yul\":2347:2888   */\n    tag_21:\n        /* \"#utility.yul\":2518:2522   */\n      0x00\n        /* \"#utility.yul\":2556:2559   */\n      0x80\n        /* \"#utility.yul\":2545:2554   */\n      dup3\n        /* \"#utility.yul\":2541:2560   */\n      add\n        /* \"#utility.yul\":2533:2560   */\n      swap1\n      pop\n        /* \"#utility.yul\":2570:2641   */\n      tag_136\n        /* \"#utility.yul\":2638:2639   */\n      0x00\n        /* \"#utility.yul\":2627:2636   */\n      dup4\n        /* \"#utility.yul\":2623:2640   */\n      add\n        /* \"#utility.yul\":2614:2620   */\n      dup8\n        /* \"#utility.yul\":2570:2641   */\n      tag_77\n      jump\t// in\n    tag_136:\n        /* \"#utility.yul\":2651:2723   */\n      tag_137\n        /* \"#utility.yul\":2719:2721   */\n      0x20\n        /* \"#utility.yul\":2708:2717   */\n      dup4\n        /* \"#utility.yul\":2704:2722   */\n      add\n        /* \"#utility.yul\":2695:2701   */\n      dup7\n        /* \"#utility.yul\":2651:2723   */\n      tag_77\n      jump\t// in\n    tag_137:\n        /* \"#utility.yul\":2733:2805   */\n      tag_138\n        /* \"#utility.yul\":2801:2803   */\n      0x40\n        /* \"#utility.yul\":2790:2799   */\n      dup4\n        /* \"#utility.yul\":2786:2804   */\n      add\n        /* \"#utility.yul\":2777:2783   */\n      dup6\n        /* \"#utility.yul\":2733:2805   */\n      tag_77\n      jump\t// in\n    tag_138:\n        /* \"#utility.yul\":2815:2881   */\n      tag_139\n        /* \"#utility.yul\":2877:2879   */\n      0x60\n        /* \"#utility.yul\":2866:2875   */\n      dup4\n        /* \"#utility.yul\":2862:2880   */\n      add\n        /* \"#utility.yul\":2853:2859   */\n      dup5\n        /* \"#utility.yul\":2815:2881   */\n      tag_79\n      jump\t// in\n    tag_139:\n        /* \"#utility.yul\":2347:2888   */\n      swap6\n      swap5\n      pop\n      pop\n      pop\n      pop\n      pop\n      jump\t// out\n        /* \"#utility.yul\":2894:2971   */\n    tag_80:\n        /* \"#utility.yul\":2931:2938   */\n      0x00\n        /* \"#utility.yul\":2960:2965   */\n      dup2\n        /* \"#utility.yul\":2949:2965   */\n      swap1\n      pop\n        /* \"#utility.yul\":2894:2971   */\n      swap2\n      swap1\n      pop\n      jump\t// out\n        /* \"#utility.yul\":2977:3099   */\n    tag_81:\n        /* \"#utility.yul\":3050:3074   */\n      tag_142\n        /* \"#utility.yul\":3068:3073   */\n      dup2\n        /* \"#utility.yul\":3050:3074   */\n      tag_80\n      jump\t// in\n    tag_142:\n        /* \"#utility.yul\":3043:3048   */\n      dup2\n        /* \"#utility.yul\":3040:3075   */\n      eq\n        /* \"#utility.yul\":3030:3093   */\n      tag_143\n      jumpi\n        /* \"#utility.yul\":3089:3090   */\n      0x00\n        /* \"#utility.yul\":3086:3087   */\n      dup1\n        /* \"#utility.yul\":3079:3091   */\n      revert\n        /* \"#utility.yul\":3030:3093   */\n    tag_143:\n        /* \"#utility.yul\":2977:3099   */\n      pop\n      jump\t// out\n        /* \"#utility.yul\":3105:3244   */\n    tag_82:\n        /* \"#utility.yul\":3151:3156   */\n      0x00\n        /* \"#utility.yul\":3189:3195   */\n      dup2\n        /* \"#utility.yul\":3176:3196   */\n      calldataload\n        /* \"#utility.yul\":3167:3196   */\n      swap1\n      pop\n        /* \"#utility.yul\":3205:3238   */\n      tag_145\n        /* \"#utility.yul\":3232:3237   */\n      dup2\n        /* \"#utility.yul\":3205:3238   */\n      tag_81\n      jump\t// in\n    tag_145:\n        /* \"#utility.yul\":3105:3244   */\n      swap3\n      swap2\n      pop\n      pop\n      jump\t// out\n        /* \"#utility.yul\":3250:3579   */\n    tag_25:\n        /* \"#utility.yul\":3309:3315   */\n      0x00\n        /* \"#utility.yul\":3358:3360   */\n      0x20\n        /* \"#utility.yul\":3346:3355   */\n      dup3\n        /* \"#utility.yul\":3337:3344   */\n      dup5\n        /* \"#utility.yul\":3333:3356   */\n      sub\n        /* \"#utility.yul\":3329:3361   */\n      slt\n        /* \"#utility.yul\":3326:3445   */\n      iszero\n      tag_147\n      jumpi\n        /* \"#utility.yul\":3364:3443   */\n      tag_148\n      tag_68\n      jump\t// in\n    tag_148:\n        /* \"#utility.yul\":3326:3445   */\n    tag_147:\n        /* \"#utility.yul\":3484:3485   */\n      0x00\n        /* \"#utility.yul\":3509:3562   */\n      tag_149\n        /* \"#utility.yul\":3554:3561   */\n      dup5\n        /* \"#utility.yul\":3545:3551   */\n      dup3\n        /* \"#utility.yul\":3534:3543   */\n      dup6\n        /* \"#utility.yul\":3530:3552   */\n      add\n        /* \"#utility.yul\":3509:3562   */\n      tag_82\n      jump\t// in\n    tag_149:\n        /* \"#utility.yul\":3499:3562   */\n      swap2\n      pop\n        /* \"#utility.yul\":3455:3572   */\n      pop\n        /* \"#utility.yul\":3250:3579   */\n      swap3\n      swap2\n      pop\n      pop\n      jump\t// out\n        /* \"#utility.yul\":3585:3703   */\n    tag_83:\n        /* \"#utility.yul\":3672:3696   */\n      tag_151\n        /* \"#utility.yul\":3690:3695   */\n      dup2\n        /* \"#utility.yul\":3672:3696   */\n      tag_74\n      jump\t// in\n    tag_151:\n        /* \"#utility.yul\":3667:3670   */\n      dup3\n        /* \"#utility.yul\":3660:3697   */\n      mstore\n        /* \"#utility.yul\":3585:3703   */\n      pop\n      pop\n      jump\t// out\n        /* \"#utility.yul\":3709:3931   */\n    tag_31:\n        /* \"#utility.yul\":3802:3806   */\n      0x00\n        /* \"#utility.yul\":3840:3842   */\n      0x20\n        /* \"#utility.yul\":3829:3838   */\n      dup3\n        /* \"#utility.yul\":3825:3843   */\n      add\n        /* \"#utility.yul\":3817:3843   */\n      swap1\n      pop\n        /* \"#utility.yul\":3853:3924   */\n      tag_153\n        /* \"#utility.yul\":3921:3922   */\n      0x00\n        /* \"#utility.yul\":3910:3919   */\n      dup4\n        /* \"#utility.yul\":3906:3923   */\n      add\n        /* \"#utility.yul\":3897:3903   */\n      dup5\n        /* \"#utility.yul\":3853:3924   */\n      tag_83\n      jump\t// in\n    tag_153:\n        /* \"#utility.yul\":3709:3931   */\n      swap3\n      swap2\n      pop\n      pop\n      jump\t// out\n        /* \"#utility.yul\":3937:4466   */\n    tag_37:\n        /* \"#utility.yul\":4102:4106   */\n      0x00\n        /* \"#utility.yul\":4140:4143   */\n      0x80\n        /* \"#utility.yul\":4129:4138   */\n      dup3\n        /* \"#utility.yul\":4125:4144   */\n      add\n        /* \"#utility.yul\":4117:4144   */\n      swap1\n      pop\n        /* \"#utility.yul\":4154:4225   */\n      tag_155\n        /* \"#utility.yul\":4222:4223   */\n      0x00\n        /* \"#utility.yul\":4211:4220   */\n      dup4\n        /* \"#utility.yul\":4207:4224   */\n      add\n        /* \"#utility.yul\":4198:4204   */\n      dup8\n        /* \"#utility.yul\":4154:4225   */\n      tag_83\n      jump\t// in\n    tag_155:\n        /* \"#utility.yul\":4235:4307   */\n      tag_156\n        /* \"#utility.yul\":4303:4305   */\n      0x20\n        /* \"#utility.yul\":4292:4301   */\n      dup4\n        /* \"#utility.yul\":4288:4306   */\n      add\n        /* \"#utility.yul\":4279:4285   */\n      dup7\n        /* \"#utility.yul\":4235:4307   */\n      tag_77\n      jump\t// in\n    tag_156:\n        /* \"#utility.yul\":4317:4383   */\n      tag_157\n        /* \"#utility.yul\":4379:4381   */\n      0x40\n        /* \"#utility.yul\":4368:4377   */\n      dup4\n        /* \"#utility.yul\":4364:4382   */\n      add\n        /* \"#utility.yul\":4355:4361   */\n      dup6\n        /* \"#utility.yul\":4317:4383   */\n      tag_79\n      jump\t// in\n    tag_157:\n        /* \"#utility.yul\":4393:4459   */\n      tag_158\n        /* \"#utility.yul\":4455:4457   */\n      0x60\n        /* \"#utility.yul\":4444:4453   */\n      dup4\n        /* \"#utility.yul\":4440:4458   */\n      add\n        /* \"#utility.yul\":4431:4437   */\n      dup5\n        /* \"#utility.yul\":4393:4459   */\n      tag_79\n      jump\t// in\n    tag_158:\n        /* \"#utility.yul\":3937:4466   */\n      swap6\n      swap5\n      pop\n      pop\n      pop\n      pop\n      pop\n      jump\t// out\n        /* \"#utility.yul\":4472:4641   */\n    tag_84:\n        /* \"#utility.yul\":4556:4567   */\n      0x00\n        /* \"#utility.yul\":4590:4596   */\n      dup3\n        /* \"#utility.yul\":4585:4588   */\n      dup3\n        /* \"#utility.yul\":4578:4597   */\n      mstore\n        /* \"#utility.yul\":4630:4634   */\n      0x20\n        /* \"#utility.yul\":4625:4628   */\n      dup3\n        /* \"#utility.yul\":4621:4635   */\n      add\n        /* \"#utility.yul\":4606:4635   */\n      swap1\n      pop\n        /* \"#utility.yul\":4472:4641   */\n      swap3\n      swap2\n      pop\n      pop\n      jump\t// out\n        /* \"#utility.yul\":4647:4871   */\n    tag_85:\n        /* \"#utility.yul\":4787:4821   */\n      0x5072656d69756d20616d6f756e74206d75737420626520677265617465722074\n        /* \"#utility.yul\":4783:4784   */\n      0x00\n        /* \"#utility.yul\":4775:4781   */\n      dup3\n        /* \"#utility.yul\":4771:4785   */\n      add\n        /* \"#utility.yul\":4764:4822   */\n      mstore\n        /* \"#utility.yul\":4856:4863   */\n      0x68616e2030000000000000000000000000000000000000000000000000000000\n        /* \"#utility.yul\":4851:4853   */\n      0x20\n        /* \"#utility.yul\":4843:4849   */\n      dup3\n        /* \"#utility.yul\":4839:4854   */\n      add\n        /* \"#utility.yul\":4832:4864   */\n      mstore\n        /* \"#utility.yul\":4647:4871   */\n      pop\n      jump\t// out\n        /* \"#utility.yul\":4877:5243   */\n    tag_86:\n        /* \"#utility.yul\":5019:5022   */\n      0x00\n        /* \"#utility.yul\":5040:5107   */\n      tag_162\n        /* \"#utility.yul\":5104:5106   */\n      0x25\n        /* \"#utility.yul\":5099:5102   */\n      dup4\n        /* \"#utility.yul\":5040:5107   */\n      tag_84\n      jump\t// in\n    tag_162:\n        /* \"#utility.yul\":5033:5107   */\n      swap2\n      pop\n        /* \"#utility.yul\":5116:5209   */\n      tag_163\n        /* \"#utility.yul\":5205:5208   */\n      dup3\n        /* \"#utility.yul\":5116:5209   */\n      tag_85\n      jump\t// in\n    tag_163:\n        /* \"#utility.yul\":5234:5236   */\n      0x40\n        /* \"#utility.yul\":5229:5232   */\n      dup3\n        /* \"#utility.yul\":5225:5237   */\n      add\n        /* \"#utility.yul\":5218:5237   */\n      swap1\n      pop\n        /* \"#utility.yul\":4877:5243   */\n      swap2\n      swap1\n      pop\n      jump\t// out\n        /* \"#utility.yul\":5249:5668   */\n    tag_41:\n        /* \"#utility.yul\":5415:5419   */\n      0x00\n        /* \"#utility.yul\":5453:5455   */\n      0x20\n        /* \"#utility.yul\":5442:5451   */\n      dup3\n        /* \"#utility.yul\":5438:5456   */\n      add\n        /* \"#utility.yul\":5430:5456   */\n      swap1\n      pop\n        /* \"#utility.yul\":5502:5511   */\n      dup2\n        /* \"#utility.yul\":5496:5500   */\n      dup2\n        /* \"#utility.yul\":5492:5512   */\n      sub\n        /* \"#utility.yul\":5488:5489   */\n      0x00\n        /* \"#utility.yul\":5477:5486   */\n      dup4\n        /* \"#utility.yul\":5473:5490   */\n      add\n        /* \"#utility.yul\":5466:5513   */\n      mstore\n        /* \"#utility.yul\":5530:5661   */\n      tag_165\n        /* \"#utility.yul\":5656:5660   */\n      dup2\n        /* \"#utility.yul\":5530:5661   */\n      tag_86\n      jump\t// in\n    tag_165:\n        /* \"#utility.yul\":5522:5661   */\n      swap1\n      pop\n        /* \"#utility.yul\":5249:5668   */\n      swap2\n      swap1\n      pop\n      jump\t// out\n        /* \"#utility.yul\":5674:5845   */\n    tag_87:\n        /* \"#utility.yul\":5814:5837   */\n      0x506f6c69637920616c7265616479206163746976650000000000000000000000\n        /* \"#utility.yul\":5810:5811   */\n      0x00\n        /* \"#utility.yul\":5802:5808   */\n      dup3\n        /* \"#utility.yul\":5798:5812   */\n      add\n        /* \"#utility.yul\":5791:5838   */\n      mstore\n        /* \"#utility.yul\":5674:5845   */\n      pop\n      jump\t// out\n        /* \"#utility.yul\":5851:6217   */\n    tag_88:\n        /* \"#utility.yul\":5993:5996   */\n      0x00\n        /* \"#utility.yul\":6014:6081   */\n      tag_168\n        /* \"#utility.yul\":6078:6080   */\n      0x15\n        /* \"#utility.yul\":6073:6076   */\n      dup4\n        /* \"#utility.yul\":6014:6081   */\n      tag_84\n      jump\t// in\n    tag_168:\n        /* \"#utility.yul\":6007:6081   */\n      swap2\n      pop\n        /* \"#utility.yul\":6090:6183   */\n      tag_169\n        /* \"#utility.yul\":6179:6182   */\n      dup3\n        /* \"#utility.yul\":6090:6183   */\n      tag_87\n      jump\t// in\n    tag_169:\n        /* \"#utility.yul\":6208:6210   */\n      0x20\n        /* \"#utility.yul\":6203:6206   */\n      dup3\n        /* \"#utility.yul\":6199:6211   */\n      add\n        /* \"#utility.yul\":6192:6211   */\n      swap1\n      pop\n        /* \"#utility.yul\":5851:6217   */\n      swap2\n      swap1\n      pop\n      jump\t// out\n        /* \"#utility.yul\":6223:6642   */\n    tag_44:\n        /* \"#utility.yul\":6389:6393   */\n      0x00\n        /* \"#utility.yul\":6427:6429   */\n      0x20\n        /* \"#utility.yul\":6416:6425   */\n      dup3\n        /* \"#utility.yul\":6412:6430   */\n      add\n        /* \"#utility.yul\":6404:6430   */\n      swap1\n      pop\n        /* \"#utility.yul\":6476:6485   */\n      dup2\n        /* \"#utility.yul\":6470:6474   */\n      dup2\n        /* \"#utility.yul\":6466:6486   */\n      sub\n        /* \"#utility.yul\":6462:6463   */\n      0x00\n        /* \"#utility.yul\":6451:6460   */\n      dup4\n        /* \"#utility.yul\":6447:6464   */\n      add\n        /* \"#utility.yul\":6440:6487   */\n      mstore\n        /* \"#utility.yul\":6504:6635   */\n      tag_171\n        /* \"#utility.yul\":6630:6634   */\n      dup2\n        /* \"#utility.yul\":6504:6635   */\n      tag_88\n      jump\t// in\n    tag_171:\n        /* \"#utility.yul\":6496:6635   */\n      swap1\n      pop\n        /* \"#utility.yul\":6223:6642   */\n      swap2\n      swap1\n      pop\n      jump\t// out\n        /* \"#utility.yul\":6648:7090   */\n    tag_46:\n        /* \"#utility.yul\":6797:6801   */\n      0x00\n        /* \"#utility.yul\":6835:6837   */\n      0x60\n        /* \"#utility.yul\":6824:6833   */\n      dup3\n        /* \"#utility.yul\":6820:6838   */\n      add\n        /* \"#utility.yul\":6812:6838   */\n      swap1\n      pop\n        /* \"#utility.yul\":6848:6919   */\n      tag_173\n        /* \"#utility.yul\":6916:6917   */\n      0x00\n        /* \"#utility.yul\":6905:6914   */\n      dup4\n        /* \"#utility.yul\":6901:6918   */\n      add\n        /* \"#utility.yul\":6892:6898   */\n      dup7\n        /* \"#utility.yul\":6848:6919   */\n      tag_77\n      jump\t// in\n    tag_173:\n        /* \"#utility.yul\":6929:7001   */\n      tag_174\n        /* \"#utility.yul\":6997:6999   */\n      0x20\n        /* \"#utility.yul\":6986:6995   */\n      dup4\n        /* \"#utility.yul\":6982:7000   */\n      add\n        /* \"#utility.yul\":6973:6979   */\n      dup6\n        /* \"#utility.yul\":6929:7001   */\n      tag_77\n      jump\t// in\n    tag_174:\n        /* \"#utility.yul\":7011:7083   */\n      tag_175\n        /* \"#utility.yul\":7079:7081   */\n      0x40\n        /* \"#utility.yul\":7068:7077   */\n      dup4\n        /* \"#utility.yul\":7064:7082   */\n      add\n        /* \"#utility.yul\":7055:7061   */\n      dup5\n        /* \"#utility.yul\":7011:7083   */\n      tag_77\n      jump\t// in\n    tag_175:\n        /* \"#utility.yul\":6648:7090   */\n      swap5\n      swap4\n      pop\n      pop\n      pop\n      pop\n      jump\t// out\n        /* \"#utility.yul\":7096:7268   */\n    tag_89:\n        /* \"#utility.yul\":7236:7260   */\n      0x4e6f2061637469766520706f6c69637920666f756e6400000000000000000000\n        /* \"#utility.yul\":7232:7233   */\n      0x00\n        /* \"#utility.yul\":7224:7230   */\n      dup3\n        /* \"#utility.yul\":7220:7234   */\n      add\n        /* \"#utility.yul\":7213:7261   */\n      mstore\n        /* \"#utility.yul\":7096:7268   */\n      pop\n      jump\t// out\n        /* \"#utility.yul\":7274:7640   */\n    tag_90:\n        /* \"#utility.yul\":7416:7419   */\n      0x00\n        /* \"#utility.yul\":7437:7504   */\n      tag_178\n        /* \"#utility.yul\":7501:7503   */\n      0x16\n        /* \"#utility.yul\":7496:7499   */\n      dup4\n        /* \"#utility.yul\":7437:7504   */\n      tag_84\n      jump\t// in\n    tag_178:\n        /* \"#utility.yul\":7430:7504   */\n      swap2\n      pop\n        /* \"#utility.yul\":7513:7606   */\n      tag_179\n        /* \"#utility.yul\":7602:7605   */\n      dup3\n        /* \"#utility.yul\":7513:7606   */\n      tag_89\n      jump\t// in\n    tag_179:\n        /* \"#utility.yul\":7631:7633   */\n      0x20\n        /* \"#utility.yul\":7626:7629   */\n      dup3\n        /* \"#utility.yul\":7622:7634   */\n      add\n        /* \"#utility.yul\":7615:7634   */\n      swap1\n      pop\n        /* \"#utility.yul\":7274:7640   */\n      swap2\n      swap1\n      pop\n      jump\t// out\n        /* \"#utility.yul\":7646:8065   */\n    tag_50:\n        /* \"#utility.yul\":7812:7816   */\n      0x00\n        /* \"#utility.yul\":7850:7852   */\n      0x20\n        /* \"#utility.yul\":7839:7848   */\n      dup3\n        /* \"#utility.yul\":7835:7853   */\n      add\n        /* \"#utility.yul\":7827:7853   */\n      swap1\n      pop\n        /* \"#utility.yul\":7899:7908   */\n      dup2\n        /* \"#utility.yul\":7893:7897   */\n      dup2\n        /* \"#utility.yul\":7889:7909   */\n      sub\n        /* \"#utility.yul\":7885:7886   */\n      0x00\n        /* \"#utility.yul\":7874:7883   */\n      dup4\n        /* \"#utility.yul\":7870:7887   */\n      add\n        /* \"#utility.yul\":7863:7910   */\n      mstore\n        /* \"#utility.yul\":7927:8058   */\n      tag_181\n        /* \"#utility.yul\":8053:8057   */\n      dup2\n        /* \"#utility.yul\":7927:8058   */\n      tag_90\n      jump\t// in\n    tag_181:\n        /* \"#utility.yul\":7919:8058   */\n      swap1\n      pop\n        /* \"#utility.yul\":7646:8065   */\n      swap2\n      swap1\n      pop\n      jump\t// out\n        /* \"#utility.yul\":8071:8235   */\n    tag_91:\n        /* \"#utility.yul\":8211:8227   */\n      0x506f6c6963792065787069726564000000000000000000000000000000000000\n        /* \"#utility.yul\":8207:8208   */\n      0x00\n        /* \"#utility.yul\":8199:8205   */\n      dup3\n        /* \"#utility.yul\":8195:8209   */\n      add\n        /* \"#utility.yul\":8188:8228   */\n      mstore\n        /* \"#utility.yul\":8071:8235   */\n      pop\n      jump\t// out\n        /* \"#utility.yul\":8241:8607   */\n    tag_92:\n        /* \"#utility.yul\":8383:8386   */\n      0x00\n        /* \"#utility.yul\":8404:8471   */\n      tag_184\n        /* \"#utility.yul\":8468:8470   */\n      0x0e\n        /* \"#utility.yul\":8463:8466   */\n      dup4\n        /* \"#utility.yul\":8404:8471   */\n      tag_84\n      jump\t// in\n    tag_184:\n        /* \"#utility.yul\":8397:8471   */\n      swap2\n      pop\n        /* \"#utility.yul\":8480:8573   */\n      tag_185\n        /* \"#utility.yul\":8569:8572   */\n      dup3\n        /* \"#utility.yul\":8480:8573   */\n      tag_91\n      jump\t// in\n    tag_185:\n        /* \"#utility.yul\":8598:8600   */\n      0x20\n        /* \"#utility.yul\":8593:8596   */\n      dup3\n        /* \"#utility.yul\":8589:8601   */\n      add\n        /* \"#utility.yul\":8582:8601   */\n      swap1\n      pop\n        /* \"#utility.yul\":8241:8607   */\n      swap2\n      swap1\n      pop\n      jump\t// out\n        /* \"#utility.yul\":8613:9032   */\n    tag_53:\n        /* \"#utility.yul\":8779:8783   */\n      0x00\n        /* \"#utility.yul\":8817:8819   */\n      0x20\n        /* \"#utility.yul\":8806:8815   */\n      dup3\n        /* \"#utility.yul\":8802:8820   */\n      add\n        /* \"#utility.yul\":8794:8820   */\n      swap1\n      pop\n        /* \"#utility.yul\":8866:8875   */\n      dup2\n        /* \"#utility.yul\":8860:8864   */\n      dup2\n        /* \"#utility.yul\":8856:8876   */\n      sub\n        /* \"#utility.yul\":8852:8853   */\n      0x00\n        /* \"#utility.yul\":8841:8850   */\n      dup4\n        /* \"#utility.yul\":8837:8854   */\n      add\n        /* \"#utility.yul\":8830:8877   */\n      mstore\n        /* \"#utility.yul\":8894:9025   */\n      tag_187\n        /* \"#utility.yul\":9020:9024   */\n      dup2\n        /* \"#utility.yul\":8894:9025   */\n      tag_92\n      jump\t// in\n    tag_187:\n        /* \"#utility.yul\":8886:9025   */\n      swap1\n      pop\n        /* \"#utility.yul\":8613:9032   */\n      swap2\n      swap1\n      pop\n      jump\t// out\n        /* \"#utility.yul\":9038:9132   */\n    tag_93:\n        /* \"#utility.yul\":9071:9079   */\n      0x00\n        /* \"#utility.yul\":9119:9124   */\n      dup2\n        /* \"#utility.yul\":9115:9117   */\n      0x60\n        /* \"#utility.yul\":9111:9125   */\n      shl\n        /* \"#utility.yul\":9090:9125   */\n      swap1\n      pop\n        /* \"#utility.yul\":9038:9132   */\n      swap2\n      swap1\n      pop\n      jump\t// out\n        /* \"#utility.yul\":9138:9232   */\n    tag_94:\n        /* \"#utility.yul\":9177:9184   */\n      0x00\n        /* \"#utility.yul\":9206:9226   */\n      tag_190\n        /* \"#utility.yul\":9220:9225   */\n      dup3\n        /* \"#utility.yul\":9206:9226   */\n      tag_93\n      jump\t// in\n    tag_190:\n        /* \"#utility.yul\":9195:9226   */\n      swap1\n      pop\n        /* \"#utility.yul\":9138:9232   */\n      swap2\n      swap1\n      pop\n      jump\t// out\n        /* \"#utility.yul\":9238:9338   */\n    tag_95:\n        /* \"#utility.yul\":9277:9284   */\n      0x00\n        /* \"#utility.yul\":9306:9332   */\n      tag_192\n        /* \"#utility.yul\":9326:9331   */\n      dup3\n        /* \"#utility.yul\":9306:9332   */\n      tag_94\n      jump\t// in\n    tag_192:\n        /* \"#utility.yul\":9295:9332   */\n      swap1\n      pop\n        /* \"#utility.yul\":9238:9338   */\n      swap2\n      swap1\n      pop\n      jump\t// out\n        /* \"#utility.yul\":9344:9501   */\n    tag_96:\n        /* \"#utility.yul\":9449:9494   */\n      tag_194\n        /* \"#utility.yul\":9469:9493   */\n      tag_195\n        /* \"#utility.yul\":9487:9492   */\n      dup3\n        /* \"#utility.yul\":9469:9493   */\n      tag_74\n      jump\t// in\n    tag_195:\n        /* \"#utility.yul\":9449:9494   */\n      tag_95\n      jump\t// in\n    tag_194:\n        /* \"#utility.yul\":9444:9447   */\n      dup3\n        /* \"#utility.yul\":9437:9495   */\n      mstore\n        /* \"#utility.yul\":9344:9501   */\n      pop\n      pop\n      jump\t// out\n        /* \"#utility.yul\":9507:9586   */\n    tag_97:\n        /* \"#utility.yul\":9546:9553   */\n      0x00\n        /* \"#utility.yul\":9575:9580   */\n      dup2\n        /* \"#utility.yul\":9564:9580   */\n      swap1\n      pop\n        /* \"#utility.yul\":9507:9586   */\n      swap2\n      swap1\n      pop\n      jump\t// out\n        /* \"#utility.yul\":9592:9749   */\n    tag_98:\n        /* \"#utility.yul\":9697:9742   */\n      tag_198\n        /* \"#utility.yul\":9717:9741   */\n      tag_199\n        /* \"#utility.yul\":9735:9740   */\n      dup3\n        /* \"#utility.yul\":9717:9741   */\n      tag_70\n      jump\t// in\n    tag_199:\n        /* \"#utility.yul\":9697:9742   */\n      tag_97\n      jump\t// in\n    tag_198:\n        /* \"#utility.yul\":9692:9695   */\n      dup3\n        /* \"#utility.yul\":9685:9743   */\n      mstore\n        /* \"#utility.yul\":9592:9749   */\n      pop\n      pop\n      jump\t// out\n        /* \"#utility.yul\":9755:10152   */\n    tag_55:\n        /* \"#utility.yul\":9895:9898   */\n      0x00\n        /* \"#utility.yul\":9910:9985   */\n      tag_201\n        /* \"#utility.yul\":9981:9984   */\n      dup3\n        /* \"#utility.yul\":9972:9978   */\n      dup6\n        /* \"#utility.yul\":9910:9985   */\n      tag_96\n      jump\t// in\n    tag_201:\n        /* \"#utility.yul\":10010:10012   */\n      0x14\n        /* \"#utility.yul\":10005:10008   */\n      dup3\n        /* \"#utility.yul\":10001:10013   */\n      add\n        /* \"#utility.yul\":9994:10013   */\n      swap2\n      pop\n        /* \"#utility.yul\":10023:10098   */\n      tag_202\n        /* \"#utility.yul\":10094:10097   */\n      dup3\n        /* \"#utility.yul\":10085:10091   */\n      dup5\n        /* \"#utility.yul\":10023:10098   */\n      tag_98\n      jump\t// in\n    tag_202:\n        /* \"#utility.yul\":10123:10125   */\n      0x20\n        /* \"#utility.yul\":10118:10121   */\n      dup3\n        /* \"#utility.yul\":10114:10126   */\n      add\n        /* \"#utility.yul\":10107:10126   */\n      swap2\n      pop\n        /* \"#utility.yul\":10143:10146   */\n      dup2\n        /* \"#utility.yul\":10136:10146   */\n      swap1\n      pop\n        /* \"#utility.yul\":9755:10152   */\n      swap4\n      swap3\n      pop\n      pop\n      pop\n      jump\t// out\n        /* \"#utility.yul\":10158:10380   */\n    tag_57:\n        /* \"#utility.yul\":10251:10255   */\n      0x00\n        /* \"#utility.yul\":10289:10291   */\n      0x20\n        /* \"#utility.yul\":10278:10287   */\n      dup3\n        /* \"#utility.yul\":10274:10292   */\n      add\n        /* \"#utility.yul\":10266:10292   */\n      swap1\n      pop\n        /* \"#utility.yul\":10302:10373   */\n      tag_204\n        /* \"#utility.yul\":10370:10371   */\n      0x00\n        /* \"#utility.yul\":10359:10368   */\n      dup4\n        /* \"#utility.yul\":10355:10372   */\n      add\n        /* \"#utility.yul\":10346:10352   */\n      dup5\n        /* \"#utility.yul\":10302:10373   */\n      tag_77\n      jump\t// in\n    tag_204:\n        /* \"#utility.yul\":10158:10380   */\n      swap3\n      swap2\n      pop\n      pop\n      jump\t// out\n        /* \"#utility.yul\":10386:10567   */\n    tag_99:\n        /* \"#utility.yul\":10526:10559   */\n      0x4f6e6c7920696e73757265722063616e20617070726f766520636c61696d7300\n        /* \"#utility.yul\":10522:10523   */\n      0x00\n        /* \"#utility.yul\":10514:10520   */\n      dup3\n        /* \"#utility.yul\":10510:10524   */\n      add\n        /* \"#utility.yul\":10503:10560   */\n      mstore\n        /* \"#utility.yul\":10386:10567   */\n      pop\n      jump\t// out\n        /* \"#utility.yul\":10573:10939   */\n    tag_100:\n        /* \"#utility.yul\":10715:10718   */\n      0x00\n        /* \"#utility.yul\":10736:10803   */\n      tag_207\n        /* \"#utility.yul\":10800:10802   */\n      0x1f\n        /* \"#utility.yul\":10795:10798   */\n      dup4\n        /* \"#utility.yul\":10736:10803   */\n      tag_84\n      jump\t// in\n    tag_207:\n        /* \"#utility.yul\":10729:10803   */\n      swap2\n      pop\n        /* \"#utility.yul\":10812:10905   */\n      tag_208\n        /* \"#utility.yul\":10901:10904   */\n      dup3\n        /* \"#utility.yul\":10812:10905   */\n      tag_99\n      jump\t// in\n    tag_208:\n        /* \"#utility.yul\":10930:10932   */\n      0x20\n        /* \"#utility.yul\":10925:10928   */\n      dup3\n        /* \"#utility.yul\":10921:10933   */\n      add\n        /* \"#utility.yul\":10914:10933   */\n      swap1\n      pop\n        /* \"#utility.yul\":10573:10939   */\n      swap2\n      swap1\n      pop\n      jump\t// out\n        /* \"#utility.yul\":10945:11364   */\n    tag_61:\n        /* \"#utility.yul\":11111:11115   */\n      0x00\n        /* \"#utility.yul\":11149:11151   */\n      0x20\n        /* \"#utility.yul\":11138:11147   */\n      dup3\n        /* \"#utility.yul\":11134:11152   */\n      add\n        /* \"#utility.yul\":11126:11152   */\n      swap1\n      pop\n        /* \"#utility.yul\":11198:11207   */\n      dup2\n        /* \"#utility.yul\":11192:11196   */\n      dup2\n        /* \"#utility.yul\":11188:11208   */\n      sub\n        /* \"#utility.yul\":11184:11185   */\n      0x00\n        /* \"#utility.yul\":11173:11182   */\n      dup4\n        /* \"#utility.yul\":11169:11186   */\n      add\n        /* \"#utility.yul\":11162:11209   */\n      mstore\n        /* \"#utility.yul\":11226:11357   */\n      tag_210\n        /* \"#utility.yul\":11352:11356   */\n      dup2\n        /* \"#utility.yul\":11226:11357   */\n      tag_100\n      jump\t// in\n    tag_210:\n        /* \"#utility.yul\":11218:11357   */\n      swap1\n      pop\n        /* \"#utility.yul\":10945:11364   */\n      swap2\n      swap1\n      pop\n      jump\t// out\n        /* \"#utility.yul\":11370:11540   */\n    tag_101:\n        /* \"#utility.yul\":11510:11532   */\n      0x436c61696d20646f6573206e6f74206578697374000000000000000000000000\n        /* \"#utility.yul\":11506:11507   */\n      0x00\n        /* \"#utility.yul\":11498:11504   */\n      dup3\n        /* \"#utility.yul\":11494:11508   */\n      add\n        /* \"#utility.yul\":11487:11533   */\n      mstore\n        /* \"#utility.yul\":11370:11540   */\n      pop\n      jump\t// out\n        /* \"#utility.yul\":11546:11912   */\n    tag_102:\n        /* \"#utility.yul\":11688:11691   */\n      0x00\n        /* \"#utility.yul\":11709:11776   */\n      tag_213\n        /* \"#utility.yul\":11773:11775   */\n      0x14\n        /* \"#utility.yul\":11768:11771   */\n      dup4\n        /* \"#utility.yul\":11709:11776   */\n      tag_84\n      jump\t// in\n    tag_213:\n        /* \"#utility.yul\":11702:11776   */\n      swap2\n      pop\n        /* \"#utility.yul\":11785:11878   */\n      tag_214\n        /* \"#utility.yul\":11874:11877   */\n      dup3\n        /* \"#utility.yul\":11785:11878   */\n      tag_101\n      jump\t// in\n    tag_214:\n        /* \"#utility.yul\":11903:11905   */\n      0x20\n        /* \"#utility.yul\":11898:11901   */\n      dup3\n        /* \"#utility.yul\":11894:11906   */\n      add\n        /* \"#utility.yul\":11887:11906   */\n      swap1\n      pop\n        /* \"#utility.yul\":11546:11912   */\n      swap2\n      swap1\n      pop\n      jump\t// out\n        /* \"#utility.yul\":11918:12337   */\n    tag_64:\n        /* \"#utility.yul\":12084:12088   */\n      0x00\n        /* \"#utility.yul\":12122:12124   */\n      0x20\n        /* \"#utility.yul\":12111:12120   */\n      dup3\n        /* \"#utility.yul\":12107:12125   */\n      add\n        /* \"#utility.yul\":12099:12125   */\n      swap1\n      pop\n        /* \"#utility.yul\":12171:12180   */\n      dup2\n        /* \"#utility.yul\":12165:12169   */\n      dup2\n        /* \"#utility.yul\":12161:12181   */\n      sub\n        /* \"#utility.yul\":12157:12158   */\n      0x00\n        /* \"#utility.yul\":12146:12155   */\n      dup4\n        /* \"#utility.yul\":12142:12159   */\n      add\n        /* \"#utility.yul\":12135:12182   */\n      mstore\n        /* \"#utility.yul\":12199:12330   */\n      tag_216\n        /* \"#utility.yul\":12325:12329   */\n      dup2\n        /* \"#utility.yul\":12199:12330   */\n      tag_102\n      jump\t// in\n    tag_216:\n        /* \"#utility.yul\":12191:12330   */\n      swap1\n      pop\n        /* \"#utility.yul\":11918:12337   */\n      swap2\n      swap1\n      pop\n      jump\t// out\n\n    auxdata: 0xa2646970667358221220715d6083fc8120388968eaf6ed66d6039a195fa5163834b60443e386055e994064736f6c63430008190033\n}\n",
				"bytecode": {
					"linkReferences": {},
					"object": "6080604052348015600e575f80fd5b503360025f6101000a81548173ffffffffffffffffffffffffffffffffffffffff021916908373ffffffffffffffffffffffffffffffffffffffff160217905550610e528061005c5f395ff3fe608060405260043610610054575f3560e01c80630b6485ae146100585780631afbd1281461007457806320e986981461008a5780633719f096146100c9578063a7c0900e146100f1578063eff0f5921461011b575b5f80fd5b610072600480360381019061006d91906108a0565b61015a565b005b34801561007f575f80fd5b5061008861031c565b005b348015610095575f80fd5b506100b060048036038101906100ab9190610938565b610601565b6040516100c0949392919061098c565b60405180910390f35b3480156100d4575f80fd5b506100ef60048036038101906100ea9190610a02565b610638565b005b3480156100fc575f80fd5b506101056107e0565b6040516101129190610a3c565b60405180910390f35b348015610126575f80fd5b50610141600480360381019061013c9190610a02565b610805565b6040516101519493929190610a55565b60405180910390f35b5f341161019c576040517f08c379a000000000000000000000000000000000000000000000000000000000815260040161019390610b18565b60405180910390fd5b5f803373ffffffffffffffffffffffffffffffffffffffff1673ffffffffffffffffffffffffffffffffffffffff1681526020019081526020015f206003015f9054906101000a900460ff1615610228576040517f08c379a000000000000000000000000000000000000000000000000000000000815260040161021f90610b80565b60405180910390fd5b6040518060800160405280348152602001838152602001828152602001600115158152505f803373ffffffffffffffffffffffffffffffffffffffff1673ffffffffffffffffffffffffffffffffffffffff1681526020019081526020015f205f820151815f015560208201518160010155604082015181600201556060820151816003015f6101000a81548160ff0219169083151502179055509050503373ffffffffffffffffffffffffffffffffffffffff167f7d02b09c49332ca74071d4d7d88d4220ec928f86ec5d8773c6faeae4ca86c5b034848460405161031093929190610b9e565b60405180910390a25050565b5f803373ffffffffffffffffffffffffffffffffffffffff1673ffffffffffffffffffffffffffffffffffffffff1681526020019081526020015f206003015f9054906101000a900460ff166103a7576040517f08c379a000000000000000000000000000000000000000000000000000000000815260040161039e90610c1d565b60405180910390fd5b5f803373ffffffffffffffffffffffffffffffffffffffff1673ffffffffffffffffffffffffffffffffffffffff1681526020019081526020015f20600201544210610428576040517f08c379a000000000000000000000000000000000000000000000000000000000815260040161041f90610c85565b60405180910390fd5b5f334260405160200161043c929190610d08565b60405160208183030381529060405280519060200120905060405180608001604052803373ffffffffffffffffffffffffffffffffffffffff1681526020015f803373ffffffffffffffffffffffffffffffffffffffff1673ffffffffffffffffffffffffffffffffffffffff1681526020019081526020015f206001015481526020015f151581526020016001151581525060015f8381526020019081526020015f205f820151815f015f6101000a81548173ffffffffffffffffffffffffffffffffffffffff021916908373ffffffffffffffffffffffffffffffffffffffff160217905550602082015181600101556040820151816002015f6101000a81548160ff02191690831515021790555060608201518160020160016101000a81548160ff0219169083151502179055509050503373ffffffffffffffffffffffffffffffffffffffff16817f1665e1c97806685a93c554916a5120e8af7533d54614518edcff6f400d8a7d085f803373ffffffffffffffffffffffffffffffffffffffff1673ffffffffffffffffffffffffffffffffffffffff1681526020019081526020015f20600101546040516105f69190610d33565b60405180910390a350565b5f602052805f5260405f205f91509050805f015490806001015490806002015490806003015f9054906101000a900460ff16905084565b60025f9054906101000a900473ffffffffffffffffffffffffffffffffffffffff1673ffffffffffffffffffffffffffffffffffffffff163373ffffffffffffffffffffffffffffffffffffffff16146106c7576040517f08c379a00000000000000000000000000000000000000000000000000000000081526004016106be90610d96565b60405180910390fd5b60015f8281526020019081526020015f2060020160019054906101000a900460ff16610728576040517f08c379a000000000000000000000000000000000000000000000000000000000815260040161071f90610dfe565b60405180910390fd5b6001805f8381526020019081526020015f206002015f6101000a81548160ff02191690831515021790555060015f8281526020019081526020015f205f015f9054906101000a900473ffffffffffffffffffffffffffffffffffffffff1673ffffffffffffffffffffffffffffffffffffffff166108fc60015f8481526020019081526020015f206001015490811502906040515f60405180830381858888f193505050501580156107dc573d5f803e3d5ffd5b5050565b60025f9054906101000a900473ffffffffffffffffffffffffffffffffffffffff1681565b6001602052805f5260405f205f91509050805f015f9054906101000a900473ffffffffffffffffffffffffffffffffffffffff1690806001015490806002015f9054906101000a900460ff16908060020160019054906101000a900460ff16905084565b5f80fd5b5f819050919050565b61087f8161086d565b8114610889575f80fd5b50565b5f8135905061089a81610876565b92915050565b5f80604083850312156108b6576108b5610869565b5b5f6108c38582860161088c565b92505060206108d48582860161088c565b9150509250929050565b5f73ffffffffffffffffffffffffffffffffffffffff82169050919050565b5f610907826108de565b9050919050565b610917816108fd565b8114610921575f80fd5b50565b5f813590506109328161090e565b92915050565b5f6020828403121561094d5761094c610869565b5b5f61095a84828501610924565b91505092915050565b61096c8161086d565b82525050565b5f8115159050919050565b61098681610972565b82525050565b5f60808201905061099f5f830187610963565b6109ac6020830186610963565b6109b96040830185610963565b6109c6606083018461097d565b95945050505050565b5f819050919050565b6109e1816109cf565b81146109eb575f80fd5b50565b5f813590506109fc816109d8565b92915050565b5f60208284031215610a1757610a16610869565b5b5f610a24848285016109ee565b91505092915050565b610a36816108fd565b82525050565b5f602082019050610a4f5f830184610a2d565b92915050565b5f608082019050610a685f830187610a2d565b610a756020830186610963565b610a82604083018561097d565b610a8f606083018461097d565b95945050505050565b5f82825260208201905092915050565b7f5072656d69756d20616d6f756e74206d757374206265206772656174657220745f8201527f68616e2030000000000000000000000000000000000000000000000000000000602082015250565b5f610b02602583610a98565b9150610b0d82610aa8565b604082019050919050565b5f6020820190508181035f830152610b2f81610af6565b9050919050565b7f506f6c69637920616c72656164792061637469766500000000000000000000005f82015250565b5f610b6a601583610a98565b9150610b7582610b36565b602082019050919050565b5f6020820190508181035f830152610b9781610b5e565b9050919050565b5f606082019050610bb15f830186610963565b610bbe6020830185610963565b610bcb6040830184610963565b949350505050565b7f4e6f2061637469766520706f6c69637920666f756e64000000000000000000005f82015250565b5f610c07601683610a98565b9150610c1282610bd3565b602082019050919050565b5f6020820190508181035f830152610c3481610bfb565b9050919050565b7f506f6c69637920657870697265640000000000000000000000000000000000005f82015250565b5f610c6f600e83610a98565b9150610c7a82610c3b565b602082019050919050565b5f6020820190508181035f830152610c9c81610c63565b9050919050565b5f8160601b9050919050565b5f610cb982610ca3565b9050919050565b5f610cca82610caf565b9050919050565b610ce2610cdd826108fd565b610cc0565b82525050565b5f819050919050565b610d02610cfd8261086d565b610ce8565b82525050565b5f610d138285610cd1565b601482019150610d238284610cf1565b6020820191508190509392505050565b5f602082019050610d465f830184610963565b92915050565b7f4f6e6c7920696e73757265722063616e20617070726f766520636c61696d73005f82015250565b5f610d80601f83610a98565b9150610d8b82610d4c565b602082019050919050565b5f6020820190508181035f830152610dad81610d74565b9050919050565b7f436c61696d20646f6573206e6f742065786973740000000000000000000000005f82015250565b5f610de8601483610a98565b9150610df382610db4565b602082019050919050565b5f6020820190508181035f830152610e1581610ddc565b905091905056fea2646970667358221220715d6083fc8120388968eaf6ed66d6039a195fa5163834b60443e386055e994064736f6c63430008190033",
					"opcodes": "PUSH1 0x80 PUSH1 0x40 MSTORE CALLVALUE DUP1 ISZERO PUSH1 0xE JUMPI PUSH0 DUP1 REVERT JUMPDEST POP CALLER PUSH1 0x2 PUSH0 PUSH2 0x100 EXP DUP2 SLOAD DUP2 PUSH20 0xFFFFFFFFFFFFFFFFFFFFFFFFFFFFFFFFFFFFFFFF MUL NOT AND SWAP1 DUP4 PUSH20 0xFFFFFFFFFFFFFFFFFFFFFFFFFFFFFFFFFFFFFFFF AND MUL OR SWAP1 SSTORE POP PUSH2 0xE52 DUP1 PUSH2 0x5C PUSH0 CODECOPY PUSH0 RETURN INVALID PUSH1 0x80 PUSH1 0x40 MSTORE PUSH1 0x4 CALLDATASIZE LT PUSH2 0x54 JUMPI PUSH0 CALLDATALOAD PUSH1 0xE0 SHR DUP1 PUSH4 0xB6485AE EQ PUSH2 0x58 JUMPI DUP1 PUSH4 0x1AFBD128 EQ PUSH2 0x74 JUMPI DUP1 PUSH4 0x20E98698 EQ PUSH2 0x8A JUMPI DUP1 PUSH4 0x3719F096 EQ PUSH2 0xC9 JUMPI DUP1 PUSH4 0xA7C0900E EQ PUSH2 0xF1 JUMPI DUP1 PUSH4 0xEFF0F592 EQ PUSH2 0x11B JUMPI JUMPDEST PUSH0 DUP1 REVERT JUMPDEST PUSH2 0x72 PUSH1 0x4 DUP1 CALLDATASIZE SUB DUP2 ADD SWAP1 PUSH2 0x6D SWAP2 SWAP1 PUSH2 0x8A0 JUMP JUMPDEST PUSH2 0x15A JUMP JUMPDEST STOP JUMPDEST CALLVALUE DUP1 ISZERO PUSH2 0x7F JUMPI PUSH0 DUP1 REVERT JUMPDEST POP PUSH2 0x88 PUSH2 0x31C JUMP JUMPDEST STOP JUMPDEST CALLVALUE DUP1 ISZERO PUSH2 0x95 JUMPI PUSH0 DUP1 REVERT JUMPDEST POP PUSH2 0xB0 PUSH1 0x4 DUP1 CALLDATASIZE SUB DUP2 ADD SWAP1 PUSH2 0xAB SWAP2 SWAP1 PUSH2 0x938 JUMP JUMPDEST PUSH2 0x601 JUMP JUMPDEST PUSH1 0x40 MLOAD PUSH2 0xC0 SWAP5 SWAP4 SWAP3 SWAP2 SWAP1 PUSH2 0x98C JUMP JUMPDEST PUSH1 0x40 MLOAD DUP1 SWAP2 SUB SWAP1 RETURN JUMPDEST CALLVALUE DUP1 ISZERO PUSH2 0xD4 JUMPI PUSH0 DUP1 REVERT JUMPDEST POP PUSH2 0xEF PUSH1 0x4 DUP1 CALLDATASIZE SUB DUP2 ADD SWAP1 PUSH2 0xEA SWAP2 SWAP1 PUSH2 0xA02 JUMP JUMPDEST PUSH2 0x638 JUMP JUMPDEST STOP JUMPDEST CALLVALUE DUP1 ISZERO PUSH2 0xFC JUMPI PUSH0 DUP1 REVERT JUMPDEST POP PUSH2 0x105 PUSH2 0x7E0 JUMP JUMPDEST PUSH1 0x40 MLOAD PUSH2 0x112 SWAP2 SWAP1 PUSH2 0xA3C JUMP JUMPDEST PUSH1 0x40 MLOAD DUP1 SWAP2 SUB SWAP1 RETURN JUMPDEST CALLVALUE DUP1 ISZERO PUSH2 0x126 JUMPI PUSH0 DUP1 REVERT JUMPDEST POP PUSH2 0x141 PUSH1 0x4 DUP1 CALLDATASIZE SUB DUP2 ADD SWAP1 PUSH2 0x13C SWAP2 SWAP1 PUSH2 0xA02 JUMP JUMPDEST PUSH2 0x805 JUMP JUMPDEST PUSH1 0x40 MLOAD PUSH2 0x151 SWAP5 SWAP4 SWAP3 SWAP2 SWAP1 PUSH2 0xA55 JUMP JUMPDEST PUSH1 0x40 MLOAD DUP1 SWAP2 SUB SWAP1 RETURN JUMPDEST PUSH0 CALLVALUE GT PUSH2 0x19C JUMPI PUSH1 0x40 MLOAD PUSH32 0x8C379A000000000000000000000000000000000000000000000000000000000 DUP2 MSTORE PUSH1 0x4 ADD PUSH2 0x193 SWAP1 PUSH2 0xB18 JUMP JUMPDEST PUSH1 0x40 MLOAD DUP1 SWAP2 SUB SWAP1 REVERT JUMPDEST PUSH0 DUP1 CALLER PUSH20 0xFFFFFFFFFFFFFFFFFFFFFFFFFFFFFFFFFFFFFFFF AND PUSH20 0xFFFFFFFFFFFFFFFFFFFFFFFFFFFFFFFFFFFFFFFF AND DUP2 MSTORE PUSH1 0x20 ADD SWAP1 DUP2 MSTORE PUSH1 0x20 ADD PUSH0 KECCAK256 PUSH1 0x3 ADD PUSH0 SWAP1 SLOAD SWAP1 PUSH2 0x100 EXP SWAP1 DIV PUSH1 0xFF AND ISZERO PUSH2 0x228 JUMPI PUSH1 0x40 MLOAD PUSH32 0x8C379A000000000000000000000000000000000000000000000000000000000 DUP2 MSTORE PUSH1 0x4 ADD PUSH2 0x21F SWAP1 PUSH2 0xB80 JUMP JUMPDEST PUSH1 0x40 MLOAD DUP1 SWAP2 SUB SWAP1 REVERT JUMPDEST PUSH1 0x40 MLOAD DUP1 PUSH1 0x80 ADD PUSH1 0x40 MSTORE DUP1 CALLVALUE DUP2 MSTORE PUSH1 0x20 ADD DUP4 DUP2 MSTORE PUSH1 0x20 ADD DUP3 DUP2 MSTORE PUSH1 0x20 ADD PUSH1 0x1 ISZERO ISZERO DUP2 MSTORE POP PUSH0 DUP1 CALLER PUSH20 0xFFFFFFFFFFFFFFFFFFFFFFFFFFFFFFFFFFFFFFFF AND PUSH20 0xFFFFFFFFFFFFFFFFFFFFFFFFFFFFFFFFFFFFFFFF AND DUP2 MSTORE PUSH1 0x20 ADD SWAP1 DUP2 MSTORE PUSH1 0x20 ADD PUSH0 KECCAK256 PUSH0 DUP3 ADD MLOAD DUP2 PUSH0 ADD SSTORE PUSH1 0x20 DUP3 ADD MLOAD DUP2 PUSH1 0x1 ADD SSTORE PUSH1 0x40 DUP3 ADD MLOAD DUP2 PUSH1 0x2 ADD SSTORE PUSH1 0x60 DUP3 ADD MLOAD DUP2 PUSH1 0x3 ADD PUSH0 PUSH2 0x100 EXP DUP2 SLOAD DUP2 PUSH1 0xFF MUL NOT AND SWAP1 DUP4 ISZERO ISZERO MUL OR SWAP1 SSTORE POP SWAP1 POP POP CALLER PUSH20 0xFFFFFFFFFFFFFFFFFFFFFFFFFFFFFFFFFFFFFFFF AND PUSH32 0x7D02B09C49332CA74071D4D7D88D4220EC928F86EC5D8773C6FAEAE4CA86C5B0 CALLVALUE DUP5 DUP5 PUSH1 0x40 MLOAD PUSH2 0x310 SWAP4 SWAP3 SWAP2 SWAP1 PUSH2 0xB9E JUMP JUMPDEST PUSH1 0x40 MLOAD DUP1 SWAP2 SUB SWAP1 LOG2 POP POP JUMP JUMPDEST PUSH0 DUP1 CALLER PUSH20 0xFFFFFFFFFFFFFFFFFFFFFFFFFFFFFFFFFFFFFFFF AND PUSH20 0xFFFFFFFFFFFFFFFFFFFFFFFFFFFFFFFFFFFFFFFF AND DUP2 MSTORE PUSH1 0x20 ADD SWAP1 DUP2 MSTORE PUSH1 0x20 ADD PUSH0 KECCAK256 PUSH1 0x3 ADD PUSH0 SWAP1 SLOAD SWAP1 PUSH2 0x100 EXP SWAP1 DIV PUSH1 0xFF AND PUSH2 0x3A7 JUMPI PUSH1 0x40 MLOAD PUSH32 0x8C379A000000000000000000000000000000000000000000000000000000000 DUP2 MSTORE PUSH1 0x4 ADD PUSH2 0x39E SWAP1 PUSH2 0xC1D JUMP JUMPDEST PUSH1 0x40 MLOAD DUP1 SWAP2 SUB SWAP1 REVERT JUMPDEST PUSH0 DUP1 CALLER PUSH20 0xFFFFFFFFFFFFFFFFFFFFFFFFFFFFFFFFFFFFFFFF AND PUSH20 0xFFFFFFFFFFFFFFFFFFFFFFFFFFFFFFFFFFFFFFFF AND DUP2 MSTORE PUSH1 0x20 ADD SWAP1 DUP2 MSTORE PUSH1 0x20 ADD PUSH0 KECCAK256 PUSH1 0x2 ADD SLOAD TIMESTAMP LT PUSH2 0x428 JUMPI PUSH1 0x40 MLOAD PUSH32 0x8C379A000000000000000000000000000000000000000000000000000000000 DUP2 MSTORE PUSH1 0x4 ADD PUSH2 0x41F SWAP1 PUSH2 0xC85 JUMP JUMPDEST PUSH1 0x40 MLOAD DUP1 SWAP2 SUB SWAP1 REVERT JUMPDEST PUSH0 CALLER TIMESTAMP PUSH1 0x40 MLOAD PUSH1 0x20 ADD PUSH2 0x43C SWAP3 SWAP2 SWAP1 PUSH2 0xD08 JUMP JUMPDEST PUSH1 0x40 MLOAD PUSH1 0x20 DUP2 DUP4 SUB SUB DUP2 MSTORE SWAP1 PUSH1 0x40 MSTORE DUP1 MLOAD SWAP1 PUSH1 0x20 ADD KECCAK256 SWAP1 POP PUSH1 0x40 MLOAD DUP1 PUSH1 0x80 ADD PUSH1 0x40 MSTORE DUP1 CALLER PUSH20 0xFFFFFFFFFFFFFFFFFFFFFFFFFFFFFFFFFFFFFFFF AND DUP2 MSTORE PUSH1 0x20 ADD PUSH0 DUP1 CALLER PUSH20 0xFFFFFFFFFFFFFFFFFFFFFFFFFFFFFFFFFFFFFFFF AND PUSH20 0xFFFFFFFFFFFFFFFFFFFFFFFFFFFFFFFFFFFFFFFF AND DUP2 MSTORE PUSH1 0x20 ADD SWAP1 DUP2 MSTORE PUSH1 0x20 ADD PUSH0 KECCAK256 PUSH1 0x1 ADD SLOAD DUP2 MSTORE PUSH1 0x20 ADD PUSH0 ISZERO ISZERO DUP2 MSTORE PUSH1 0x20 ADD PUSH1 0x1 ISZERO ISZERO DUP2 MSTORE POP PUSH1 0x1 PUSH0 DUP4 DUP2 MSTORE PUSH1 0x20 ADD SWAP1 DUP2 MSTORE PUSH1 0x20 ADD PUSH0 KECCAK256 PUSH0 DUP3 ADD MLOAD DUP2 PUSH0 ADD PUSH0 PUSH2 0x100 EXP DUP2 SLOAD DUP2 PUSH20 0xFFFFFFFFFFFFFFFFFFFFFFFFFFFFFFFFFFFFFFFF MUL NOT AND SWAP1 DUP4 PUSH20 0xFFFFFFFFFFFFFFFFFFFFFFFFFFFFFFFFFFFFFFFF AND MUL OR SWAP1 SSTORE POP PUSH1 0x20 DUP3 ADD MLOAD DUP2 PUSH1 0x1 ADD SSTORE PUSH1 0x40 DUP3 ADD MLOAD DUP2 PUSH1 0x2 ADD PUSH0 PUSH2 0x100 EXP DUP2 SLOAD DUP2 PUSH1 0xFF MUL NOT AND SWAP1 DUP4 ISZERO ISZERO MUL OR SWAP1 SSTORE POP PUSH1 0x60 DUP3 ADD MLOAD DUP2 PUSH1 0x2 ADD PUSH1 0x1 PUSH2 0x100 EXP DUP2 SLOAD DUP2 PUSH1 0xFF MUL NOT AND SWAP1 DUP4 ISZERO ISZERO MUL OR SWAP1 SSTORE POP SWAP1 POP POP CALLER PUSH20 0xFFFFFFFFFFFFFFFFFFFFFFFFFFFFFFFFFFFFFFFF AND DUP2 PUSH32 0x1665E1C97806685A93C554916A5120E8AF7533D54614518EDCFF6F400D8A7D08 PUSH0 DUP1 CALLER PUSH20 0xFFFFFFFFFFFFFFFFFFFFFFFFFFFFFFFFFFFFFFFF AND PUSH20 0xFFFFFFFFFFFFFFFFFFFFFFFFFFFFFFFFFFFFFFFF AND DUP2 MSTORE PUSH1 0x20 ADD SWAP1 DUP2 MSTORE PUSH1 0x20 ADD PUSH0 KECCAK256 PUSH1 0x1 ADD SLOAD PUSH1 0x40 MLOAD PUSH2 0x5F6 SWAP2 SWAP1 PUSH2 0xD33 JUMP JUMPDEST PUSH1 0x40 MLOAD DUP1 SWAP2 SUB SWAP1 LOG3 POP JUMP JUMPDEST PUSH0 PUSH1 0x20 MSTORE DUP1 PUSH0 MSTORE PUSH1 0x40 PUSH0 KECCAK256 PUSH0 SWAP2 POP SWAP1 POP DUP1 PUSH0 ADD SLOAD SWAP1 DUP1 PUSH1 0x1 ADD SLOAD SWAP1 DUP1 PUSH1 0x2 ADD SLOAD SWAP1 DUP1 PUSH1 0x3 ADD PUSH0 SWAP1 SLOAD SWAP1 PUSH2 0x100 EXP SWAP1 DIV PUSH1 0xFF AND SWAP1 POP DUP5 JUMP JUMPDEST PUSH1 0x2 PUSH0 SWAP1 SLOAD SWAP1 PUSH2 0x100 EXP SWAP1 DIV PUSH20 0xFFFFFFFFFFFFFFFFFFFFFFFFFFFFFFFFFFFFFFFF AND PUSH20 0xFFFFFFFFFFFFFFFFFFFFFFFFFFFFFFFFFFFFFFFF AND CALLER PUSH20 0xFFFFFFFFFFFFFFFFFFFFFFFFFFFFFFFFFFFFFFFF AND EQ PUSH2 0x6C7 JUMPI PUSH1 0x40 MLOAD PUSH32 0x8C379A000000000000000000000000000000000000000000000000000000000 DUP2 MSTORE PUSH1 0x4 ADD PUSH2 0x6BE SWAP1 PUSH2 0xD96 JUMP JUMPDEST PUSH1 0x40 MLOAD DUP1 SWAP2 SUB SWAP1 REVERT JUMPDEST PUSH1 0x1 PUSH0 DUP3 DUP2 MSTORE PUSH1 0x20 ADD SWAP1 DUP2 MSTORE PUSH1 0x20 ADD PUSH0 KECCAK256 PUSH1 0x2 ADD PUSH1 0x1 SWAP1 SLOAD SWAP1 PUSH2 0x100 EXP SWAP1 DIV PUSH1 0xFF AND PUSH2 0x728 JUMPI PUSH1 0x40 MLOAD PUSH32 0x8C379A000000000000000000000000000000000000000000000000000000000 DUP2 MSTORE PUSH1 0x4 ADD PUSH2 0x71F SWAP1 PUSH2 0xDFE JUMP JUMPDEST PUSH1 0x40 MLOAD DUP1 SWAP2 SUB SWAP1 REVERT JUMPDEST PUSH1 0x1 DUP1 PUSH0 DUP4 DUP2 MSTORE PUSH1 0x20 ADD SWAP1 DUP2 MSTORE PUSH1 0x20 ADD PUSH0 KECCAK256 PUSH1 0x2 ADD PUSH0 PUSH2 0x100 EXP DUP2 SLOAD DUP2 PUSH1 0xFF MUL NOT AND SWAP1 DUP4 ISZERO ISZERO MUL OR SWAP1 SSTORE POP PUSH1 0x1 PUSH0 DUP3 DUP2 MSTORE PUSH1 0x20 ADD SWAP1 DUP2 MSTORE PUSH1 0x20 ADD PUSH0 KECCAK256 PUSH0 ADD PUSH0 SWAP1 SLOAD SWAP1 PUSH2 0x100 EXP SWAP1 DIV PUSH20 0xFFFFFFFFFFFFFFFFFFFFFFFFFFFFFFFFFFFFFFFF AND PUSH20 0xFFFFFFFFFFFFFFFFFFFFFFFFFFFFFFFFFFFFFFFF AND PUSH2 0x8FC PUSH1 0x1 PUSH0 DUP5 DUP2 MSTORE PUSH1 0x20 ADD SWAP1 DUP2 MSTORE PUSH1 0x20 ADD PUSH0 KECCAK256 PUSH1 0x1 ADD SLOAD SWAP1 DUP2 ISZERO MUL SWAP1 PUSH1 0x40 MLOAD PUSH0 PUSH1 0x40 MLOAD DUP1 DUP4 SUB DUP2 DUP6 DUP9 DUP9 CALL SWAP4 POP POP POP POP ISZERO DUP1 ISZERO PUSH2 0x7DC JUMPI RETURNDATASIZE PUSH0 DUP1 RETURNDATACOPY RETURNDATASIZE PUSH0 REVERT JUMPDEST POP POP JUMP JUMPDEST PUSH1 0x2 PUSH0 SWAP1 SLOAD SWAP1 PUSH2 0x100 EXP SWAP1 DIV PUSH20 0xFFFFFFFFFFFFFFFFFFFFFFFFFFFFFFFFFFFFFFFF AND DUP2 JUMP JUMPDEST PUSH1 0x1 PUSH1 0x20 MSTORE DUP1 PUSH0 MSTORE PUSH1 0x40 PUSH0 KECCAK256 PUSH0 SWAP2 POP SWAP1 POP DUP1 PUSH0 ADD PUSH0 SWAP1 SLOAD SWAP1 PUSH2 0x100 EXP SWAP1 DIV PUSH20 0xFFFFFFFFFFFFFFFFFFFFFFFFFFFFFFFFFFFFFFFF AND SWAP1 DUP1 PUSH1 0x1 ADD SLOAD SWAP1 DUP1 PUSH1 0x2 ADD PUSH0 SWAP1 SLOAD SWAP1 PUSH2 0x100 EXP SWAP1 DIV PUSH1 0xFF AND SWAP1 DUP1 PUSH1 0x2 ADD PUSH1 0x1 SWAP1 SLOAD SWAP1 PUSH2 0x100 EXP SWAP1 DIV PUSH1 0xFF AND SWAP1 POP DUP5 JUMP JUMPDEST PUSH0 DUP1 REVERT JUMPDEST PUSH0 DUP2 SWAP1 POP SWAP2 SWAP1 POP JUMP JUMPDEST PUSH2 0x87F DUP2 PUSH2 0x86D JUMP JUMPDEST DUP2 EQ PUSH2 0x889 JUMPI PUSH0 DUP1 REVERT JUMPDEST POP JUMP JUMPDEST PUSH0 DUP2 CALLDATALOAD SWAP1 POP PUSH2 0x89A DUP2 PUSH2 0x876 JUMP JUMPDEST SWAP3 SWAP2 POP POP JUMP JUMPDEST PUSH0 DUP1 PUSH1 0x40 DUP4 DUP6 SUB SLT ISZERO PUSH2 0x8B6 JUMPI PUSH2 0x8B5 PUSH2 0x869 JUMP JUMPDEST JUMPDEST PUSH0 PUSH2 0x8C3 DUP6 DUP3 DUP7 ADD PUSH2 0x88C JUMP JUMPDEST SWAP3 POP POP PUSH1 0x20 PUSH2 0x8D4 DUP6 DUP3 DUP7 ADD PUSH2 0x88C JUMP JUMPDEST SWAP2 POP POP SWAP3 POP SWAP3 SWAP1 POP JUMP JUMPDEST PUSH0 PUSH20 0xFFFFFFFFFFFFFFFFFFFFFFFFFFFFFFFFFFFFFFFF DUP3 AND SWAP1 POP SWAP2 SWAP1 POP JUMP JUMPDEST PUSH0 PUSH2 0x907 DUP3 PUSH2 0x8DE JUMP JUMPDEST SWAP1 POP SWAP2 SWAP1 POP JUMP JUMPDEST PUSH2 0x917 DUP2 PUSH2 0x8FD JUMP JUMPDEST DUP2 EQ PUSH2 0x921 JUMPI PUSH0 DUP1 REVERT JUMPDEST POP JUMP JUMPDEST PUSH0 DUP2 CALLDATALOAD SWAP1 POP PUSH2 0x932 DUP2 PUSH2 0x90E JUMP JUMPDEST SWAP3 SWAP2 POP POP JUMP JUMPDEST PUSH0 PUSH1 0x20 DUP3 DUP5 SUB SLT ISZERO PUSH2 0x94D JUMPI PUSH2 0x94C PUSH2 0x869 JUMP JUMPDEST JUMPDEST PUSH0 PUSH2 0x95A DUP5 DUP3 DUP6 ADD PUSH2 0x924 JUMP JUMPDEST SWAP2 POP POP SWAP3 SWAP2 POP POP JUMP JUMPDEST PUSH2 0x96C DUP2 PUSH2 0x86D JUMP JUMPDEST DUP3 MSTORE POP POP JUMP JUMPDEST PUSH0 DUP2 ISZERO ISZERO SWAP1 POP SWAP2 SWAP1 POP JUMP JUMPDEST PUSH2 0x986 DUP2 PUSH2 0x972 JUMP JUMPDEST DUP3 MSTORE POP POP JUMP JUMPDEST PUSH0 PUSH1 0x80 DUP3 ADD SWAP1 POP PUSH2 0x99F PUSH0 DUP4 ADD DUP8 PUSH2 0x963 JUMP JUMPDEST PUSH2 0x9AC PUSH1 0x20 DUP4 ADD DUP7 PUSH2 0x963 JUMP JUMPDEST PUSH2 0x9B9 PUSH1 0x40 DUP4 ADD DUP6 PUSH2 0x963 JUMP JUMPDEST PUSH2 0x9C6 PUSH1 0x60 DUP4 ADD DUP5 PUSH2 0x97D JUMP JUMPDEST SWAP6 SWAP5 POP POP POP POP POP JUMP JUMPDEST PUSH0 DUP2 SWAP1 POP SWAP2 SWAP1 POP JUMP JUMPDEST PUSH2 0x9E1 DUP2 PUSH2 0x9CF JUMP JUMPDEST DUP2 EQ PUSH2 0x9EB JUMPI PUSH0 DUP1 REVERT JUMPDEST POP JUMP JUMPDEST PUSH0 DUP2 CALLDATALOAD SWAP1 POP PUSH2 0x9FC DUP2 PUSH2 0x9D8 JUMP JUMPDEST SWAP3 SWAP2 POP POP JUMP JUMPDEST PUSH0 PUSH1 0x20 DUP3 DUP5 SUB SLT ISZERO PUSH2 0xA17 JUMPI PUSH2 0xA16 PUSH2 0x869 JUMP JUMPDEST JUMPDEST PUSH0 PUSH2 0xA24 DUP5 DUP3 DUP6 ADD PUSH2 0x9EE JUMP JUMPDEST SWAP2 POP POP SWAP3 SWAP2 POP POP JUMP JUMPDEST PUSH2 0xA36 DUP2 PUSH2 0x8FD JUMP JUMPDEST DUP3 MSTORE POP POP JUMP JUMPDEST PUSH0 PUSH1 0x20 DUP3 ADD SWAP1 POP PUSH2 0xA4F PUSH0 DUP4 ADD DUP5 PUSH2 0xA2D JUMP JUMPDEST SWAP3 SWAP2 POP POP JUMP JUMPDEST PUSH0 PUSH1 0x80 DUP3 ADD SWAP1 POP PUSH2 0xA68 PUSH0 DUP4 ADD DUP8 PUSH2 0xA2D JUMP JUMPDEST PUSH2 0xA75 PUSH1 0x20 DUP4 ADD DUP7 PUSH2 0x963 JUMP JUMPDEST PUSH2 0xA82 PUSH1 0x40 DUP4 ADD DUP6 PUSH2 0x97D JUMP JUMPDEST PUSH2 0xA8F PUSH1 0x60 DUP4 ADD DUP5 PUSH2 0x97D JUMP JUMPDEST SWAP6 SWAP5 POP POP POP POP POP JUMP JUMPDEST PUSH0 DUP3 DUP3 MSTORE PUSH1 0x20 DUP3 ADD SWAP1 POP SWAP3 SWAP2 POP POP JUMP JUMPDEST PUSH32 0x5072656D69756D20616D6F756E74206D75737420626520677265617465722074 PUSH0 DUP3 ADD MSTORE PUSH32 0x68616E2030000000000000000000000000000000000000000000000000000000 PUSH1 0x20 DUP3 ADD MSTORE POP JUMP JUMPDEST PUSH0 PUSH2 0xB02 PUSH1 0x25 DUP4 PUSH2 0xA98 JUMP JUMPDEST SWAP2 POP PUSH2 0xB0D DUP3 PUSH2 0xAA8 JUMP JUMPDEST PUSH1 0x40 DUP3 ADD SWAP1 POP SWAP2 SWAP1 POP JUMP JUMPDEST PUSH0 PUSH1 0x20 DUP3 ADD SWAP1 POP DUP2 DUP2 SUB PUSH0 DUP4 ADD MSTORE PUSH2 0xB2F DUP2 PUSH2 0xAF6 JUMP JUMPDEST SWAP1 POP SWAP2 SWAP1 POP JUMP JUMPDEST PUSH32 0x506F6C69637920616C7265616479206163746976650000000000000000000000 PUSH0 DUP3 ADD MSTORE POP JUMP JUMPDEST PUSH0 PUSH2 0xB6A PUSH1 0x15 DUP4 PUSH2 0xA98 JUMP JUMPDEST SWAP2 POP PUSH2 0xB75 DUP3 PUSH2 0xB36 JUMP JUMPDEST PUSH1 0x20 DUP3 ADD SWAP1 POP SWAP2 SWAP1 POP JUMP JUMPDEST PUSH0 PUSH1 0x20 DUP3 ADD SWAP1 POP DUP2 DUP2 SUB PUSH0 DUP4 ADD MSTORE PUSH2 0xB97 DUP2 PUSH2 0xB5E JUMP JUMPDEST SWAP1 POP SWAP2 SWAP1 POP JUMP JUMPDEST PUSH0 PUSH1 0x60 DUP3 ADD SWAP1 POP PUSH2 0xBB1 PUSH0 DUP4 ADD DUP7 PUSH2 0x963 JUMP JUMPDEST PUSH2 0xBBE PUSH1 0x20 DUP4 ADD DUP6 PUSH2 0x963 JUMP JUMPDEST PUSH2 0xBCB PUSH1 0x40 DUP4 ADD DUP5 PUSH2 0x963 JUMP JUMPDEST SWAP5 SWAP4 POP POP POP POP JUMP JUMPDEST PUSH32 0x4E6F2061637469766520706F6C69637920666F756E6400000000000000000000 PUSH0 DUP3 ADD MSTORE POP JUMP JUMPDEST PUSH0 PUSH2 0xC07 PUSH1 0x16 DUP4 PUSH2 0xA98 JUMP JUMPDEST SWAP2 POP PUSH2 0xC12 DUP3 PUSH2 0xBD3 JUMP JUMPDEST PUSH1 0x20 DUP3 ADD SWAP1 POP SWAP2 SWAP1 POP JUMP JUMPDEST PUSH0 PUSH1 0x20 DUP3 ADD SWAP1 POP DUP2 DUP2 SUB PUSH0 DUP4 ADD MSTORE PUSH2 0xC34 DUP2 PUSH2 0xBFB JUMP JUMPDEST SWAP1 POP SWAP2 SWAP1 POP JUMP JUMPDEST PUSH32 0x506F6C6963792065787069726564000000000000000000000000000000000000 PUSH0 DUP3 ADD MSTORE POP JUMP JUMPDEST PUSH0 PUSH2 0xC6F PUSH1 0xE DUP4 PUSH2 0xA98 JUMP JUMPDEST SWAP2 POP PUSH2 0xC7A DUP3 PUSH2 0xC3B JUMP JUMPDEST PUSH1 0x20 DUP3 ADD SWAP1 POP SWAP2 SWAP1 POP JUMP JUMPDEST PUSH0 PUSH1 0x20 DUP3 ADD SWAP1 POP DUP2 DUP2 SUB PUSH0 DUP4 ADD MSTORE PUSH2 0xC9C DUP2 PUSH2 0xC63 JUMP JUMPDEST SWAP1 POP SWAP2 SWAP1 POP JUMP JUMPDEST PUSH0 DUP2 PUSH1 0x60 SHL SWAP1 POP SWAP2 SWAP1 POP JUMP JUMPDEST PUSH0 PUSH2 0xCB9 DUP3 PUSH2 0xCA3 JUMP JUMPDEST SWAP1 POP SWAP2 SWAP1 POP JUMP JUMPDEST PUSH0 PUSH2 0xCCA DUP3 PUSH2 0xCAF JUMP JUMPDEST SWAP1 POP SWAP2 SWAP1 POP JUMP JUMPDEST PUSH2 0xCE2 PUSH2 0xCDD DUP3 PUSH2 0x8FD JUMP JUMPDEST PUSH2 0xCC0 JUMP JUMPDEST DUP3 MSTORE POP POP JUMP JUMPDEST PUSH0 DUP2 SWAP1 POP SWAP2 SWAP1 POP JUMP JUMPDEST PUSH2 0xD02 PUSH2 0xCFD DUP3 PUSH2 0x86D JUMP JUMPDEST PUSH2 0xCE8 JUMP JUMPDEST DUP3 MSTORE POP POP JUMP JUMPDEST PUSH0 PUSH2 0xD13 DUP3 DUP6 PUSH2 0xCD1 JUMP JUMPDEST PUSH1 0x14 DUP3 ADD SWAP2 POP PUSH2 0xD23 DUP3 DUP5 PUSH2 0xCF1 JUMP JUMPDEST PUSH1 0x20 DUP3 ADD SWAP2 POP DUP2 SWAP1 POP SWAP4 SWAP3 POP POP POP JUMP JUMPDEST PUSH0 PUSH1 0x20 DUP3 ADD SWAP1 POP PUSH2 0xD46 PUSH0 DUP4 ADD DUP5 PUSH2 0x963 JUMP JUMPDEST SWAP3 SWAP2 POP POP JUMP JUMPDEST PUSH32 0x4F6E6C7920696E73757265722063616E20617070726F766520636C61696D7300 PUSH0 DUP3 ADD MSTORE POP JUMP JUMPDEST PUSH0 PUSH2 0xD80 PUSH1 0x1F DUP4 PUSH2 0xA98 JUMP JUMPDEST SWAP2 POP PUSH2 0xD8B DUP3 PUSH2 0xD4C JUMP JUMPDEST PUSH1 0x20 DUP3 ADD SWAP1 POP SWAP2 SWAP1 POP JUMP JUMPDEST PUSH0 PUSH1 0x20 DUP3 ADD SWAP1 POP DUP2 DUP2 SUB PUSH0 DUP4 ADD MSTORE PUSH2 0xDAD DUP2 PUSH2 0xD74 JUMP JUMPDEST SWAP1 POP SWAP2 SWAP1 POP JUMP JUMPDEST PUSH32 0x436C61696D20646F6573206E6F74206578697374000000000000000000000000 PUSH0 DUP3 ADD MSTORE POP JUMP JUMPDEST PUSH0 PUSH2 0xDE8 PUSH1 0x14 DUP4 PUSH2 0xA98 JUMP JUMPDEST SWAP2 POP PUSH2 0xDF3 DUP3 PUSH2 0xDB4 JUMP JUMPDEST PUSH1 0x20 DUP3 ADD SWAP1 POP SWAP2 SWAP1 POP JUMP JUMPDEST PUSH0 PUSH1 0x20 DUP3 ADD SWAP1 POP DUP2 DUP2 SUB PUSH0 DUP4 ADD MSTORE PUSH2 0xE15 DUP2 PUSH2 0xDDC JUMP JUMPDEST SWAP1 POP SWAP2 SWAP1 POP JUMP INVALID LOG2 PUSH5 0x6970667358 0x22 SLT KECCAK256 PUSH18 0x5D6083FC8120388968EAF6ED66D6039A195F 0xA5 AND CODESIZE CALLVALUE 0xB6 DIV NUMBER 0xE3 DUP7 SDIV MCOPY SWAP10 BLOCKHASH PUSH5 0x736F6C6343 STOP ADDMOD NOT STOP CALLER "
				},
				"gasEstimates": {
					"creation": {
						"codeDepositCost": "733200",
						"executionCost": "25029",
						"totalCost": "758229"
					},
					"external": {
						"approveClaim(bytes32)": "infinite",
						"claims(bytes32)": "infinite",
						"insurerAddress()": "2574",
						"policies(address)": "infinite",
						"purchasePolicy(uint256,uint256)": "infinite",
						"submitClaim()": "infinite"
					}
				},
				"methodIdentifiers": {
					"approveClaim(bytes32)": "3719f096",
					"claims(bytes32)": "eff0f592",
					"insurerAddress()": "a7c0900e",
					"policies(address)": "20e98698",
					"purchasePolicy(uint256,uint256)": "0b6485ae",
					"submitClaim()": "1afbd128"
				}
			},
			"storageLayout": {
				"storage": [
					{
						"astId": 24,
						"contract": "InsuranceContract.sol:InsuranceContract",
						"label": "policies",
						"offset": 0,
						"slot": "0",
						"type": "t_mapping(t_address,t_struct(Policy)10_storage)"
					},
					{
						"astId": 29,
						"contract": "InsuranceContract.sol:InsuranceContract",
						"label": "claims",
						"offset": 0,
						"slot": "1",
						"type": "t_mapping(t_bytes32,t_struct(Claim)19_storage)"
					},
					{
						"astId": 161,
						"contract": "InsuranceContract.sol:InsuranceContract",
						"label": "insurerAddress",
						"offset": 0,
						"slot": "2",
						"type": "t_address"
					}
				],
				"types": {
					"t_address": {
						"encoding": "inplace",
						"label": "address",
						"numberOfBytes": "20"
					},
					"t_bool": {
						"encoding": "inplace",
						"label": "bool",
						"numberOfBytes": "1"
					},
					"t_bytes32": {
						"encoding": "inplace",
						"label": "bytes32",
						"numberOfBytes": "32"
					},
					"t_mapping(t_address,t_struct(Policy)10_storage)": {
						"encoding": "mapping",
						"key": "t_address",
						"label": "mapping(address => struct InsuranceContract.Policy)",
						"numberOfBytes": "32",
						"value": "t_struct(Policy)10_storage"
					},
					"t_mapping(t_bytes32,t_struct(Claim)19_storage)": {
						"encoding": "mapping",
						"key": "t_bytes32",
						"label": "mapping(bytes32 => struct InsuranceContract.Claim)",
						"numberOfBytes": "32",
						"value": "t_struct(Claim)19_storage"
					},
					"t_struct(Claim)19_storage": {
						"encoding": "inplace",
						"label": "struct InsuranceContract.Claim",
						"members": [
							{
								"astId": 12,
								"contract": "InsuranceContract.sol:InsuranceContract",
								"label": "policyHolder",
								"offset": 0,
								"slot": "0",
								"type": "t_address"
							},
							{
								"astId": 14,
								"contract": "InsuranceContract.sol:InsuranceContract",
								"label": "claimAmount",
								"offset": 0,
								"slot": "1",
								"type": "t_uint256"
							},
							{
								"astId": 16,
								"contract": "InsuranceContract.sol:InsuranceContract",
								"label": "approved",
								"offset": 0,
								"slot": "2",
								"type": "t_bool"
							},
							{
								"astId": 18,
								"contract": "InsuranceContract.sol:InsuranceContract",
								"label": "exists",
								"offset": 1,
								"slot": "2",
								"type": "t_bool"
							}
						],
						"numberOfBytes": "96"
					},
					"t_struct(Policy)10_storage": {
						"encoding": "inplace",
						"label": "struct InsuranceContract.Policy",
						"members": [
							{
								"astId": 3,
								"contract": "InsuranceContract.sol:InsuranceContract",
								"label": "premium",
								"offset": 0,
								"slot": "0",
								"type": "t_uint256"
							},
							{
								"astId": 5,
								"contract": "InsuranceContract.sol:InsuranceContract",
								"label": "coverageAmount",
								"offset": 0,
								"slot": "1",
								"type": "t_uint256"
							},
							{
								"astId": 7,
								"contract": "InsuranceContract.sol:InsuranceContract",
								"label": "expirationTimestamp",
								"offset": 0,
								"slot": "2",
								"type": "t_uint256"
							},
							{
								"astId": 9,
								"contract": "InsuranceContract.sol:InsuranceContract",
								"label": "active",
								"offset": 0,
								"slot": "3",
								"type": "t_bool"
							}
						],
						"numberOfBytes": "128"
					},
					"t_uint256": {
						"encoding": "inplace",
						"label": "uint256",
						"numberOfBytes": "32"
					}
				}
			},
			"userdoc": {
				"kind": "user",
				"methods": {},
				"version": 1
			}
		}
	}
}